{
  "contractName": "PredMarket",
  "abi": [
    {
      "inputs": [
        {
          "internalType": "address",
          "name": "_tokenPred",
          "type": "address"
        },
        {
          "internalType": "address",
          "name": "_tokenStaked",
          "type": "address"
        },
        {
          "internalType": "address",
          "name": "_oracle",
          "type": "address"
        },
        {
          "internalType": "address",
          "name": "_admin",
          "type": "address"
        },
        {
          "internalType": "address",
          "name": "_operator",
          "type": "address"
        },
        {
          "internalType": "uint256",
          "name": "_interval",
          "type": "uint256"
        },
        {
          "internalType": "uint256",
          "name": "_buffer",
          "type": "uint256"
        },
        {
          "internalType": "uint256",
          "name": "_minBetAmount",
          "type": "uint256"
        },
        {
          "internalType": "uint256",
          "name": "_oracleUpdateAllowance",
          "type": "uint256"
        }
      ],
      "stateMutability": "nonpayable",
      "type": "constructor"
    },
    {
      "anonymous": false,
      "inputs": [
        {
          "indexed": true,
          "internalType": "enum PredMarket.Position",
          "name": "position",
          "type": "uint8"
        },
        {
          "indexed": true,
          "internalType": "address",
          "name": "sender",
          "type": "address"
        },
        {
          "indexed": true,
          "internalType": "uint256",
          "name": "currentEpoch",
          "type": "uint256"
        },
        {
          "indexed": false,
          "internalType": "uint256",
          "name": "amount",
          "type": "uint256"
        }
      ],
      "name": "Bet",
      "type": "event"
    },
    {
      "anonymous": false,
      "inputs": [
        {
          "indexed": true,
          "internalType": "address",
          "name": "sender",
          "type": "address"
        },
        {
          "indexed": true,
          "internalType": "uint256",
          "name": "currentEpoch",
          "type": "uint256"
        },
        {
          "indexed": false,
          "internalType": "uint256",
          "name": "amount",
          "type": "uint256"
        }
      ],
      "name": "Claim",
      "type": "event"
    },
    {
      "anonymous": false,
      "inputs": [
        {
          "indexed": false,
          "internalType": "uint256",
          "name": "amount",
          "type": "uint256"
        }
      ],
      "name": "ClaimTreasury",
      "type": "event"
    },
    {
      "anonymous": false,
      "inputs": [
        {
          "indexed": true,
          "internalType": "uint256",
          "name": "epoch",
          "type": "uint256"
        },
        {
          "indexed": false,
          "internalType": "uint256",
          "name": "time",
          "type": "uint256"
        },
        {
          "indexed": false,
          "internalType": "int256",
          "name": "price",
          "type": "int256"
        }
      ],
      "name": "EndRound",
      "type": "event"
    },
    {
      "anonymous": false,
      "inputs": [
        {
          "indexed": true,
          "internalType": "uint256",
          "name": "epoch",
          "type": "uint256"
        },
        {
          "indexed": false,
          "internalType": "uint256",
          "name": "time",
          "type": "uint256"
        },
        {
          "indexed": false,
          "internalType": "int256",
          "name": "price",
          "type": "int256"
        }
      ],
      "name": "LockRound",
      "type": "event"
    },
    {
      "anonymous": false,
      "inputs": [
        {
          "indexed": true,
          "internalType": "uint256",
          "name": "epoch",
          "type": "uint256"
        },
        {
          "indexed": false,
          "internalType": "uint256",
          "name": "minBetAmount",
          "type": "uint256"
        }
      ],
      "name": "MinBetAmountUpdated",
      "type": "event"
    },
    {
      "anonymous": false,
      "inputs": [
        {
          "indexed": false,
          "internalType": "uint256",
          "name": "epoch",
          "type": "uint256"
        }
      ],
      "name": "Pause",
      "type": "event"
    },
    {
      "anonymous": false,
      "inputs": [
        {
          "indexed": false,
          "internalType": "address",
          "name": "account",
          "type": "address"
        }
      ],
      "name": "Paused",
      "type": "event"
    },
    {
      "anonymous": false,
      "inputs": [
        {
          "indexed": true,
          "internalType": "uint256",
          "name": "epoch",
          "type": "uint256"
        },
        {
          "indexed": false,
          "internalType": "uint256",
          "name": "rewardRate",
          "type": "uint256"
        },
        {
          "indexed": false,
          "internalType": "uint256",
          "name": "treasuryRate",
          "type": "uint256"
        }
      ],
      "name": "RatesUpdated",
      "type": "event"
    },
    {
      "anonymous": false,
      "inputs": [
        {
          "indexed": true,
          "internalType": "uint256",
          "name": "epoch",
          "type": "uint256"
        },
        {
          "indexed": false,
          "internalType": "uint256",
          "name": "rewardBaseCalAmount",
          "type": "uint256"
        },
        {
          "indexed": false,
          "internalType": "uint256",
          "name": "rewardAmount",
          "type": "uint256"
        },
        {
          "indexed": false,
          "internalType": "uint256",
          "name": "treasuryAmount",
          "type": "uint256"
        }
      ],
      "name": "RewardsCalculated",
      "type": "event"
    },
    {
      "anonymous": false,
      "inputs": [
        {
          "indexed": true,
          "internalType": "uint256",
          "name": "epoch",
          "type": "uint256"
        },
        {
          "indexed": false,
          "internalType": "uint256",
          "name": "time",
          "type": "uint256"
        }
      ],
      "name": "StartRound",
      "type": "event"
    },
    {
      "anonymous": false,
      "inputs": [
        {
          "indexed": false,
          "internalType": "uint256",
          "name": "epoch",
          "type": "uint256"
        }
      ],
      "name": "Unpause",
      "type": "event"
    },
    {
      "anonymous": false,
      "inputs": [
        {
          "indexed": false,
          "internalType": "address",
          "name": "account",
          "type": "address"
        }
      ],
      "name": "Unpaused",
      "type": "event"
    },
    {
      "inputs": [],
      "name": "TOTAL_RATE",
      "outputs": [
        {
          "internalType": "uint256",
          "name": "",
          "type": "uint256"
        }
      ],
      "stateMutability": "view",
      "type": "function"
    },
    {
      "inputs": [],
      "name": "admin",
      "outputs": [
        {
          "internalType": "address",
          "name": "",
          "type": "address"
        }
      ],
      "stateMutability": "view",
      "type": "function"
    },
    {
      "inputs": [],
      "name": "buffer",
      "outputs": [
        {
          "internalType": "uint256",
          "name": "",
          "type": "uint256"
        }
      ],
      "stateMutability": "view",
      "type": "function"
    },
    {
      "inputs": [],
      "name": "currentEpoch",
      "outputs": [
        {
          "internalType": "uint256",
          "name": "",
          "type": "uint256"
        }
      ],
      "stateMutability": "view",
      "type": "function"
    },
    {
      "inputs": [],
      "name": "genesisLockOnce",
      "outputs": [
        {
          "internalType": "bool",
          "name": "",
          "type": "bool"
        }
      ],
      "stateMutability": "view",
      "type": "function"
    },
    {
      "inputs": [],
      "name": "genesisStartOnce",
      "outputs": [
        {
          "internalType": "bool",
          "name": "",
          "type": "bool"
        }
      ],
      "stateMutability": "view",
      "type": "function"
    },
    {
      "inputs": [],
      "name": "interval",
      "outputs": [
        {
          "internalType": "uint256",
          "name": "",
          "type": "uint256"
        }
      ],
      "stateMutability": "view",
      "type": "function"
    },
    {
      "inputs": [
        {
          "internalType": "uint256",
          "name": "",
          "type": "uint256"
        },
        {
          "internalType": "address",
          "name": "",
          "type": "address"
        }
      ],
      "name": "ledger",
      "outputs": [
        {
          "internalType": "enum PredMarket.Position",
          "name": "position",
          "type": "uint8"
        },
        {
          "internalType": "uint256",
          "name": "amount",
          "type": "uint256"
        },
        {
          "internalType": "bool",
          "name": "claimed",
          "type": "bool"
        }
      ],
      "stateMutability": "view",
      "type": "function"
    },
    {
      "inputs": [],
      "name": "minBetAmount",
      "outputs": [
        {
          "internalType": "uint256",
          "name": "",
          "type": "uint256"
        }
      ],
      "stateMutability": "view",
      "type": "function"
    },
    {
      "inputs": [],
      "name": "operator",
      "outputs": [
        {
          "internalType": "address",
          "name": "",
          "type": "address"
        }
      ],
      "stateMutability": "view",
      "type": "function"
    },
    {
      "inputs": [],
      "name": "oracleRoundId",
      "outputs": [
        {
          "internalType": "uint256",
          "name": "",
          "type": "uint256"
        }
      ],
      "stateMutability": "view",
      "type": "function"
    },
    {
      "inputs": [],
      "name": "oracleUpdateAllowance",
      "outputs": [
        {
          "internalType": "uint256",
          "name": "",
          "type": "uint256"
        }
      ],
      "stateMutability": "view",
      "type": "function"
    },
    {
      "inputs": [],
      "name": "owner",
      "outputs": [
        {
          "internalType": "address",
          "name": "",
          "type": "address"
        }
      ],
      "stateMutability": "view",
      "type": "function"
    },
    {
      "inputs": [],
      "name": "paused",
      "outputs": [
        {
          "internalType": "bool",
          "name": "",
          "type": "bool"
        }
      ],
      "stateMutability": "view",
      "type": "function"
    },
    {
      "inputs": [],
      "name": "rewardRate",
      "outputs": [
        {
          "internalType": "uint256",
          "name": "",
          "type": "uint256"
        }
      ],
      "stateMutability": "view",
      "type": "function"
    },
    {
      "inputs": [
        {
          "internalType": "uint256",
          "name": "",
          "type": "uint256"
        }
      ],
      "name": "rounds",
      "outputs": [
        {
          "internalType": "uint256",
          "name": "epoch",
          "type": "uint256"
        },
        {
          "internalType": "uint256",
          "name": "startTime",
          "type": "uint256"
        },
        {
          "internalType": "uint256",
          "name": "lockTime",
          "type": "uint256"
        },
        {
          "internalType": "uint256",
          "name": "endTime",
          "type": "uint256"
        },
        {
          "internalType": "int256",
          "name": "lockPrice",
          "type": "int256"
        },
        {
          "internalType": "int256",
          "name": "closePrice",
          "type": "int256"
        },
        {
          "internalType": "uint256",
          "name": "totalAmount",
          "type": "uint256"
        },
        {
          "internalType": "uint256",
          "name": "bullAmount",
          "type": "uint256"
        },
        {
          "internalType": "uint256",
          "name": "bearAmount",
          "type": "uint256"
        },
        {
          "internalType": "uint256",
          "name": "rewardBaseCalAmount",
          "type": "uint256"
        },
        {
          "internalType": "uint256",
          "name": "rewardAmount",
          "type": "uint256"
        },
        {
          "internalType": "bool",
          "name": "oracleCalled",
          "type": "bool"
        }
      ],
      "stateMutability": "view",
      "type": "function"
    },
    {
      "inputs": [],
      "name": "tokenPred",
      "outputs": [
        {
          "internalType": "address",
          "name": "",
          "type": "address"
        }
      ],
      "stateMutability": "view",
      "type": "function"
    },
    {
      "inputs": [],
      "name": "tokenStaked",
      "outputs": [
        {
          "internalType": "address",
          "name": "",
          "type": "address"
        }
      ],
      "stateMutability": "view",
      "type": "function"
    },
    {
      "inputs": [],
      "name": "treasuryAmount",
      "outputs": [
        {
          "internalType": "uint256",
          "name": "",
          "type": "uint256"
        }
      ],
      "stateMutability": "view",
      "type": "function"
    },
    {
      "inputs": [],
      "name": "treasuryRate",
      "outputs": [
        {
          "internalType": "uint256",
          "name": "",
          "type": "uint256"
        }
      ],
      "stateMutability": "view",
      "type": "function"
    },
    {
      "inputs": [
        {
          "internalType": "address",
          "name": "",
          "type": "address"
        },
        {
          "internalType": "uint256",
          "name": "",
          "type": "uint256"
        }
      ],
      "name": "userRounds",
      "outputs": [
        {
          "internalType": "uint256",
          "name": "",
          "type": "uint256"
        }
      ],
      "stateMutability": "view",
      "type": "function"
    },
    {
      "inputs": [
        {
          "internalType": "address",
          "name": "_admin",
          "type": "address"
        }
      ],
      "name": "setAdmin",
      "outputs": [],
      "stateMutability": "nonpayable",
      "type": "function"
    },
    {
      "inputs": [
        {
          "internalType": "address",
          "name": "_operator",
          "type": "address"
        }
      ],
      "name": "setOperator",
      "outputs": [],
      "stateMutability": "nonpayable",
      "type": "function"
    },
    {
      "inputs": [
        {
          "internalType": "uint256",
          "name": "_interval",
          "type": "uint256"
        }
      ],
      "name": "setInterval",
      "outputs": [],
      "stateMutability": "nonpayable",
      "type": "function"
    },
    {
      "inputs": [
        {
          "internalType": "uint256",
          "name": "_buffer",
          "type": "uint256"
        }
      ],
      "name": "setBuffer",
      "outputs": [],
      "stateMutability": "nonpayable",
      "type": "function"
    },
    {
      "inputs": [
        {
          "internalType": "address",
          "name": "_oracle",
          "type": "address"
        }
      ],
      "name": "setOracle",
      "outputs": [],
      "stateMutability": "nonpayable",
      "type": "function"
    },
    {
      "inputs": [
        {
          "internalType": "uint256",
          "name": "_oracleUpdateAllowance",
          "type": "uint256"
        }
      ],
      "name": "setOracleUpdateAllowance",
      "outputs": [],
      "stateMutability": "nonpayable",
      "type": "function"
    },
    {
      "inputs": [
        {
          "internalType": "uint256",
          "name": "_rewardRate",
          "type": "uint256"
        }
      ],
      "name": "setRewardRate",
      "outputs": [],
      "stateMutability": "nonpayable",
      "type": "function"
    },
    {
      "inputs": [
        {
          "internalType": "uint256",
          "name": "_minBetAmount",
          "type": "uint256"
        }
      ],
      "name": "setMinBetAmount",
      "outputs": [],
      "stateMutability": "nonpayable",
      "type": "function"
    },
    {
      "inputs": [],
      "name": "genesisStartRound",
      "outputs": [],
      "stateMutability": "nonpayable",
      "type": "function"
    },
    {
      "inputs": [],
      "name": "genesisLockRound",
      "outputs": [],
      "stateMutability": "nonpayable",
      "type": "function"
    },
    {
      "inputs": [],
      "name": "executeRound",
      "outputs": [],
      "stateMutability": "nonpayable",
      "type": "function"
    },
    {
      "inputs": [
        {
          "internalType": "uint256",
          "name": "_amount",
          "type": "uint256"
        }
      ],
      "name": "betBear",
      "outputs": [],
      "stateMutability": "nonpayable",
      "type": "function"
    },
    {
      "inputs": [
        {
          "internalType": "uint256",
          "name": "_amount",
          "type": "uint256"
        }
      ],
      "name": "betBull",
      "outputs": [],
      "stateMutability": "payable",
      "type": "function"
    },
    {
      "inputs": [
        {
          "internalType": "uint256",
          "name": "epoch",
          "type": "uint256"
        }
      ],
      "name": "claim",
      "outputs": [],
      "stateMutability": "nonpayable",
      "type": "function"
    },
    {
      "inputs": [],
      "name": "claimTreasury",
      "outputs": [],
      "stateMutability": "nonpayable",
      "type": "function"
    },
    {
      "inputs": [
        {
          "internalType": "address",
          "name": "user",
          "type": "address"
        },
        {
          "internalType": "uint256",
          "name": "cursor",
          "type": "uint256"
        },
        {
          "internalType": "uint256",
          "name": "size",
          "type": "uint256"
        }
      ],
      "name": "getUserRounds",
      "outputs": [
        {
          "internalType": "uint256[]",
          "name": "",
          "type": "uint256[]"
        },
        {
          "internalType": "uint256",
          "name": "",
          "type": "uint256"
        }
      ],
      "stateMutability": "view",
      "type": "function"
    },
    {
      "inputs": [],
      "name": "pause",
      "outputs": [],
      "stateMutability": "nonpayable",
      "type": "function"
    },
    {
      "inputs": [],
      "name": "unpause",
      "outputs": [],
      "stateMutability": "nonpayable",
      "type": "function"
    },
    {
      "inputs": [
        {
          "internalType": "uint256",
          "name": "epoch",
          "type": "uint256"
        },
        {
          "internalType": "address",
          "name": "user",
          "type": "address"
        }
      ],
      "name": "claimable",
      "outputs": [
        {
          "internalType": "bool",
          "name": "",
          "type": "bool"
        }
      ],
      "stateMutability": "view",
      "type": "function"
    },
    {
      "inputs": [
        {
          "internalType": "uint256",
          "name": "epoch",
          "type": "uint256"
        },
        {
          "internalType": "address",
          "name": "user",
          "type": "address"
        }
      ],
      "name": "refundable",
      "outputs": [
        {
          "internalType": "bool",
          "name": "",
          "type": "bool"
        }
      ],
      "stateMutability": "view",
      "type": "function"
    }
  ],
  "bytecode": "0x6080604052605a600d55600a600e556000601160006101000a81548160ff0219169083151502179055506000601160016101000a81548160ff0219169083151502179055503480156200005157600080fd5b50604051620056b7380380620056b7833981810160405281019062000077919062000270565b60008060006101000a81548160ff02191690831515021790555088601160026101000a81548173ffffffffffffffffffffffffffffffffffffffff021916908373ffffffffffffffffffffffffffffffffffffffff16021790555087601260006101000a81548173ffffffffffffffffffffffffffffffffffffffff021916908373ffffffffffffffffffffffffffffffffffffffff16021790555086600b60006101000a81548173ffffffffffffffffffffffffffffffffffffffff021916908373ffffffffffffffffffffffffffffffffffffffff16021790555085600860006101000a81548173ffffffffffffffffffffffffffffffffffffffff021916908373ffffffffffffffffffffffffffffffffffffffff16021790555084600960006101000a81548173ffffffffffffffffffffffffffffffffffffffff021916908373ffffffffffffffffffffffffffffffffffffffff160217905550836005819055508260068190555081600f819055508060108190555033600760006101000a81548173ffffffffffffffffffffffffffffffffffffffff021916908373ffffffffffffffffffffffffffffffffffffffff160217905550505050505050505050620003bb565b600081519050620002538162000387565b92915050565b6000815190506200026a81620003a1565b92915050565b60008060008060008060008060006101208a8c0312156200029057600080fd5b6000620002a08c828d0162000242565b9950506020620002b38c828d0162000242565b9850506040620002c68c828d0162000242565b9750506060620002d98c828d0162000242565b9650506080620002ec8c828d0162000242565b95505060a0620002ff8c828d0162000259565b94505060c0620003128c828d0162000259565b93505060e0620003258c828d0162000259565b925050610100620003398c828d0162000259565b9150509295985092959850929598565b600062000356826200035d565b9050919050565b600073ffffffffffffffffffffffffffffffffffffffff82169050919050565b6000819050919050565b620003928162000349565b81146200039e57600080fd5b50565b620003ac816200037d565b8114620003b857600080fd5b50565b6152ec80620003cb6000396000f3fe6080604052600436106102455760003560e01c8063840725c511610139578063b29c299b116100b6578063dd1f75961161007a578063dd1f7596146107f8578063e4b7251614610835578063edaafe2014610860578063f7fdec281461088b578063f851a440146108b6578063fa968eea146108e157610245565b8063b29c299b14610739578063b3ab15fb14610764578063cf2f50391461078d578063d26abb89146107b6578063d9d55eac146107e157610245565b8063951fd600116100fd578063951fd600146106435780639e447fc614610681578063a0c7f71c146106aa578063aa6b873a146106e7578063adc7ea371461071057610245565b8063840725c5146105635780638456cb591461058e5780638c65c81f146105a55780638da5cb5b146105ed578063947a36fb1461061857610245565b80635c975abb116101c7578063766718081161018b57806376671808146104905780637adbf973146104bb5780637b0a47ee146104e45780637b3205f51461050f5780637bf412541461052657610245565b80635c975abb146103a957806360554011146103d45780636c188593146103ff578063704b6c02146104285780637285c58b1461045157610245565b80633f4ba83a1161020e5780633f4ba83a14610309578063452fd75a14610320578063518f49d814610337578063570ca7351461036257806357fb096f1461038d57610245565b80623bdc741461024a5780630f74174f1461026157806322a900821461028c578063368acb09146102b5578063379607f5146102e0575b600080fd5b34801561025657600080fd5b5061025f61090c565b005b34801561026d57600080fd5b50610276610a11565b604051610283919061499d565b60405180910390f35b34801561029857600080fd5b506102b360048036038101906102ae9190613e22565b610a24565b005b3480156102c157600080fd5b506102ca610abe565b6040516102d79190614e0f565b60405180910390f35b3480156102ec57600080fd5b5061030760048036038101906103029190613e22565b610ac4565b005b34801561031557600080fd5b5061031e610fe7565b005b34801561032c57600080fd5b50610335611137565b005b34801561034357600080fd5b5061034c61129c565b60405161035991906148f2565b60405180910390f35b34801561036e57600080fd5b506103776112c2565b60405161038491906148f2565b60405180910390f35b6103a760048036038101906103a29190613e22565b6112e8565b005b3480156103b557600080fd5b506103be611805565b6040516103cb919061499d565b60405180910390f35b3480156103e057600080fd5b506103e961181b565b6040516103f69190614e0f565b60405180910390f35b34801561040b57600080fd5b5061042660048036038101906104219190613e22565b611821565b005b34801561043457600080fd5b5061044f600480360381019061044a9190613d45565b6118f7565b005b34801561045d57600080fd5b5061047860048036038101906104739190613e4b565b611a3b565b604051610487939291906149b8565b60405180910390f35b34801561049c57600080fd5b506104a5611a8c565b6040516104b29190614e0f565b60405180910390f35b3480156104c757600080fd5b506104e260048036038101906104dd9190613d45565b611a92565b005b3480156104f057600080fd5b506104f9611bd6565b6040516105069190614e0f565b60405180910390f35b34801561051b57600080fd5b50610524611bdc565b005b34801561053257600080fd5b5061054d60048036038101906105489190613e4b565b611d85565b60405161055a919061499d565b60405180910390f35b34801561056f57600080fd5b50610578611e49565b60405161058591906148f2565b60405180910390f35b34801561059a57600080fd5b506105a3611e6f565b005b3480156105b157600080fd5b506105cc60048036038101906105c79190613e22565b611f8a565b6040516105e49c9b9a99989796959493929190614eb3565b60405180910390f35b3480156105f957600080fd5b50610602611ff7565b60405161060f91906148f2565b60405180910390f35b34801561062457600080fd5b5061062d61201d565b60405161063a9190614e0f565b60405180910390f35b34801561064f57600080fd5b5061066a60048036038101906106659190613daa565b612023565b60405161067892919061496d565b60405180910390f35b34801561068d57600080fd5b506106a860048036038101906106a39190613e22565b612250565b005b3480156106b657600080fd5b506106d160048036038101906106cc9190613e4b565b612388565b6040516106de919061499d565b60405180910390f35b3480156106f357600080fd5b5061070e60048036038101906107099190613e22565b612690565b005b34801561071c57600080fd5b5061073760048036038101906107329190613e22565b612bac565b005b34801561074557600080fd5b5061074e612c8b565b60405161075b9190614e0f565b60405180910390f35b34801561077057600080fd5b5061078b60048036038101906107869190613d45565b612c90565b005b34801561079957600080fd5b506107b460048036038101906107af9190613e22565b612dd4565b005b3480156107c257600080fd5b506107cb612e6e565b6040516107d89190614e0f565b60405180910390f35b3480156107ed57600080fd5b506107f6612e74565b005b34801561080457600080fd5b5061081f600480360381019061081a9190613d6e565b6130b0565b60405161082c9190614e0f565b60405180910390f35b34801561084157600080fd5b5061084a6130e1565b6040516108579190614e0f565b60405180910390f35b34801561086c57600080fd5b506108756130e7565b6040516108829190614e0f565b60405180910390f35b34801561089757600080fd5b506108a06130ed565b6040516108ad919061499d565b60405180910390f35b3480156108c257600080fd5b506108cb613100565b6040516108d891906148f2565b60405180910390f35b3480156108ed57600080fd5b506108f6613126565b6040516109039190614e0f565b60405180910390f35b600860009054906101000a900473ffffffffffffffffffffffffffffffffffffffff1673ffffffffffffffffffffffffffffffffffffffff163373ffffffffffffffffffffffffffffffffffffffff161461099c576040517f08c379a000000000000000000000000000000000000000000000000000000000815260040161099390614cef565b60405180910390fd5b6000600a5490506000600a819055506109d7600860009054906101000a900473ffffffffffffffffffffffffffffffffffffffff168261312c565b7f609175abb7f12481e4f200d1ef4fc834e6caac3d9eadba42d664352f6d0932ca81604051610a069190614e0f565b60405180910390a150565b601160019054906101000a900460ff1681565b600860009054906101000a900473ffffffffffffffffffffffffffffffffffffffff1673ffffffffffffffffffffffffffffffffffffffff163373ffffffffffffffffffffffffffffffffffffffff1614610ab4576040517f08c379a0000000000000000000000000000000000000000000000000000000008152600401610aab90614cef565b60405180910390fd5b8060058190555050565b600a5481565b610acd33613224565b15610b0d576040517f08c379a0000000000000000000000000000000000000000000000000000000008152600401610b0490614c6f565b60405180910390fd5b3273ffffffffffffffffffffffffffffffffffffffff163373ffffffffffffffffffffffffffffffffffffffff1614610b7b576040517f08c379a0000000000000000000000000000000000000000000000000000000008152600401610b72906149ef565b60405180910390fd5b600060016000838152602001908152602001600020600101541415610bd5576040517f08c379a0000000000000000000000000000000000000000000000000000000008152600401610bcc90614acf565b60405180910390fd5b60016000828152602001908152602001600020600301544211610c2d576040517f08c379a0000000000000000000000000000000000000000000000000000000008152600401610c2490614daf565b60405180910390fd5b6002600082815260200190815260200160002060003373ffffffffffffffffffffffffffffffffffffffff1673ffffffffffffffffffffffffffffffffffffffff16815260200190815260200160002060020160009054906101000a900460ff1615610cce576040517f08c379a0000000000000000000000000000000000000000000000000000000008152600401610cc590614def565b60405180910390fd5b600060016000838152602001908152602001600020600b0160009054906101000a900460ff1615610e7857610d038233612388565b610d42576040517f08c379a0000000000000000000000000000000000000000000000000000000008152600401610d3990614b4f565b60405180910390fd5b6000600160008481526020019081526020016000206040518061018001604052908160008201548152602001600182015481526020016002820154815260200160038201548152602001600482015481526020016005820154815260200160068201548152602001600782015481526020016008820154815260200160098201548152602001600a8201548152602001600b820160009054906101000a900460ff1615151515815250509050610e70816101200151610e628361014001516002600088815260200190815260200160002060003373ffffffffffffffffffffffffffffffffffffffff1673ffffffffffffffffffffffffffffffffffffffff1681526020019081526020016000206001015461323790919063ffffffff16565b61324d90919063ffffffff16565b915050610f18565b610e828233611d85565b610ec1576040517f08c379a0000000000000000000000000000000000000000000000000000000008152600401610eb890614a4f565b60405180910390fd5b6002600083815260200190815260200160002060003373ffffffffffffffffffffffffffffffffffffffff1673ffffffffffffffffffffffffffffffffffffffff1681526020019081526020016000206001015490505b60006002600084815260200190815260200160002060003373ffffffffffffffffffffffffffffffffffffffff1673ffffffffffffffffffffffffffffffffffffffff168152602001908152602001600020905060018160020160006101000a81548160ff021916908315150217905550610f93338361312c565b823373ffffffffffffffffffffffffffffffffffffffff167f34fcbac0073d7c3d388e51312faf357774904998eeb8fca628b9e6f65ee1cbf784604051610fda9190614e0f565b60405180910390a3505050565b600860009054906101000a900473ffffffffffffffffffffffffffffffffffffffff1673ffffffffffffffffffffffffffffffffffffffff163373ffffffffffffffffffffffffffffffffffffffff1614611077576040517f08c379a000000000000000000000000000000000000000000000000000000000815260040161106e90614cef565b60405180910390fd5b61107f611805565b6110be576040517f08c379a00000000000000000000000000000000000000000000000000000000081526004016110b590614a2f565b60405180910390fd5b6000601160006101000a81548160ff0219169083151502179055506000601160016101000a81548160ff0219169083151502179055506110fc613263565b7faaa520fdd7d2c83061d632fa017b0432407e798818af63ea908589fceda39ab760045460405161112d9190614e0f565b60405180910390a1565b600960009054906101000a900473ffffffffffffffffffffffffffffffffffffffff1673ffffffffffffffffffffffffffffffffffffffff163373ffffffffffffffffffffffffffffffffffffffff16146111c7576040517f08c379a00000000000000000000000000000000000000000000000000000000081526004016111be90614d2f565b60405180910390fd5b6111cf611805565b1561120f576040517f08c379a000000000000000000000000000000000000000000000000000000000815260040161120690614baf565b60405180910390fd5b601160009054906101000a900460ff161561125f576040517f08c379a000000000000000000000000000000000000000000000000000000000815260040161125690614b2f565b60405180910390fd5b600160045461126e9190614fb7565b60048190555061127f600454613304565b6001601160006101000a81548160ff021916908315150217905550565b601260009054906101000a900473ffffffffffffffffffffffffffffffffffffffff1681565b600960009054906101000a900473ffffffffffffffffffffffffffffffffffffffff1681565b6112f0611805565b15611330576040517f08c379a000000000000000000000000000000000000000000000000000000000815260040161132790614baf565b60405180910390fd5b61133933613224565b15611379576040517f08c379a000000000000000000000000000000000000000000000000000000000815260040161137090614c6f565b60405180910390fd5b3273ffffffffffffffffffffffffffffffffffffffff163373ffffffffffffffffffffffffffffffffffffffff16146113e7576040517f08c379a00000000000000000000000000000000000000000000000000000000081526004016113de906149ef565b60405180910390fd5b6113f26004546133b9565b611431576040517f08c379a000000000000000000000000000000000000000000000000000000000815260040161142890614c8f565b60405180910390fd5b600060026000600454815260200190815260200160002060003373ffffffffffffffffffffffffffffffffffffffff1673ffffffffffffffffffffffffffffffffffffffff16815260200190815260200160002060010154146114c9576040517f08c379a00000000000000000000000000000000000000000000000000000000081526004016114c090614d4f565b60405180910390fd5b600f5481101561150e576040517f08c379a000000000000000000000000000000000000000000000000000000000815260040161150590614c0f565b60405180910390fd5b601260009054906101000a900473ffffffffffffffffffffffffffffffffffffffff1673ffffffffffffffffffffffffffffffffffffffff166323b872dd3330846040518463ffffffff1660e01b815260040161156d9392919061490d565b602060405180830381600087803b15801561158757600080fd5b505af115801561159b573d6000803e3d6000fd5b505050506040513d601f19601f820116820180604052508101906115bf9190613df9565b6115fe576040517f08c379a00000000000000000000000000000000000000000000000000000000081526004016115f590614a8f565b60405180910390fd5b60008190506000600160006004548152602001908152602001600020905061163382826006015461342190919063ffffffff16565b816006018190555061165282826007015461342190919063ffffffff16565b8160070181905550600060026000600454815260200190815260200160002060003373ffffffffffffffffffffffffffffffffffffffff1673ffffffffffffffffffffffffffffffffffffffff168152602001908152602001600020905060008160000160006101000a81548160ff021916908360018111156116fe577f4e487b7100000000000000000000000000000000000000000000000000000000600052602160045260246000fd5b0217905550828160010181905550600360003373ffffffffffffffffffffffffffffffffffffffff1673ffffffffffffffffffffffffffffffffffffffff16815260200190815260200160002060045490806001815401808255809150506001900390600052602060002001600090919091909150556004543373ffffffffffffffffffffffffffffffffffffffff16600060018111156117c8577f4e487b7100000000000000000000000000000000000000000000000000000000600052602160045260246000fd5b7f6c6fb072b0f1fdeb7fc4e51fb0c21cc463eeaa32571ef3ce8e765c607cedf51e866040516117f79190614e0f565b60405180910390a450505050565b60008060009054906101000a900460ff16905090565b60105481565b600860009054906101000a900473ffffffffffffffffffffffffffffffffffffffff1673ffffffffffffffffffffffffffffffffffffffff163373ffffffffffffffffffffffffffffffffffffffff16146118b1576040517f08c379a00000000000000000000000000000000000000000000000000000000081526004016118a890614cef565b60405180910390fd5b80600f819055506004547f82480e97991520549ac4b5d0e1d97edb3bfac2666202923b6903d2a953dc7608600f546040516118ec9190614e0f565b60405180910390a250565b600760009054906101000a900473ffffffffffffffffffffffffffffffffffffffff1673ffffffffffffffffffffffffffffffffffffffff163373ffffffffffffffffffffffffffffffffffffffff1614611987576040517f08c379a000000000000000000000000000000000000000000000000000000000815260040161197e90614ccf565b60405180910390fd5b600073ffffffffffffffffffffffffffffffffffffffff168173ffffffffffffffffffffffffffffffffffffffff1614156119f7576040517f08c379a00000000000000000000000000000000000000000000000000000000081526004016119ee90614bcf565b60405180910390fd5b80600860006101000a81548173ffffffffffffffffffffffffffffffffffffffff021916908373ffffffffffffffffffffffffffffffffffffffff16021790555050565b6002602052816000526040600020602052806000526040600020600091509150508060000160009054906101000a900460ff16908060010154908060020160009054906101000a900460ff16905083565b60045481565b600860009054906101000a900473ffffffffffffffffffffffffffffffffffffffff1673ffffffffffffffffffffffffffffffffffffffff163373ffffffffffffffffffffffffffffffffffffffff1614611b22576040517f08c379a0000000000000000000000000000000000000000000000000000000008152600401611b1990614cef565b60405180910390fd5b600073ffffffffffffffffffffffffffffffffffffffff168173ffffffffffffffffffffffffffffffffffffffff161415611b92576040517f08c379a0000000000000000000000000000000000000000000000000000000008152600401611b8990614bcf565b60405180910390fd5b80600b60006101000a81548173ffffffffffffffffffffffffffffffffffffffff021916908373ffffffffffffffffffffffffffffffffffffffff16021790555050565b600d5481565b600960009054906101000a900473ffffffffffffffffffffffffffffffffffffffff1673ffffffffffffffffffffffffffffffffffffffff163373ffffffffffffffffffffffffffffffffffffffff1614611c6c576040517f08c379a0000000000000000000000000000000000000000000000000000000008152600401611c6390614d2f565b60405180910390fd5b611c74611805565b15611cb4576040517f08c379a0000000000000000000000000000000000000000000000000000000008152600401611cab90614baf565b60405180910390fd5b601160009054906101000a900460ff168015611cdc5750601160019054906101000a900460ff165b611d1b576040517f08c379a0000000000000000000000000000000000000000000000000000000008152600401611d1290614a6f565b60405180910390fd5b6000611d25613437565b9050611d33600454826135af565b611d4b6001600454611d459190615098565b826136a6565b611d626001600454611d5d9190615098565b61379d565b6001600454611d719190614fb7565b600481905550611d826004546139fe565b50565b600060016000848152602001908152602001600020600b0160009054906101000a900460ff16158015611de15750611dde600654600160008681526020019081526020016000206003015461342190919063ffffffff16565b42115b8015611e41575060006002600085815260200190815260200160002060008473ffffffffffffffffffffffffffffffffffffffff1673ffffffffffffffffffffffffffffffffffffffff1681526020019081526020016000206001015414155b905092915050565b601160029054906101000a900473ffffffffffffffffffffffffffffffffffffffff1681565b600860009054906101000a900473ffffffffffffffffffffffffffffffffffffffff1673ffffffffffffffffffffffffffffffffffffffff163373ffffffffffffffffffffffffffffffffffffffff1614611eff576040517f08c379a0000000000000000000000000000000000000000000000000000000008152600401611ef690614cef565b60405180910390fd5b611f07611805565b15611f47576040517f08c379a0000000000000000000000000000000000000000000000000000000008152600401611f3e90614baf565b60405180910390fd5b611f4f613b24565b7f68b095021b1f40fe513109f513c66692f0b3219aee674a69f4efc57badb8201d600454604051611f809190614e0f565b60405180910390a1565b600160205280600052604060002060009150905080600001549080600101549080600201549080600301549080600401549080600501549080600601549080600701549080600801549080600901549080600a01549080600b0160009054906101000a900460ff1690508c565b600760009054906101000a900473ffffffffffffffffffffffffffffffffffffffff1681565b60055481565b606060008083905084600360008873ffffffffffffffffffffffffffffffffffffffff1673ffffffffffffffffffffffffffffffffffffffff168152602001908152602001600020805490506120799190615098565b8111156120d15784600360008873ffffffffffffffffffffffffffffffffffffffff1673ffffffffffffffffffffffffffffffffffffffff168152602001908152602001600020805490506120ce9190615098565b90505b60008167ffffffffffffffff811115612113577f4e487b7100000000000000000000000000000000000000000000000000000000600052604160045260246000fd5b6040519080825280602002602001820160405280156121415781602001602082028036833780820191505090505b50905060005b8281101561223457600360008973ffffffffffffffffffffffffffffffffffffffff1673ffffffffffffffffffffffffffffffffffffffff168152602001908152602001600020818861219a9190614fb7565b815481106121d1577f4e487b7100000000000000000000000000000000000000000000000000000000600052603260045260246000fd5b9060005260206000200154828281518110612215577f4e487b7100000000000000000000000000000000000000000000000000000000600052603260045260246000fd5b602002602001018181525050808061222c90615159565b915050612147565b508082876122429190614fb7565b935093505050935093915050565b600860009054906101000a900473ffffffffffffffffffffffffffffffffffffffff1673ffffffffffffffffffffffffffffffffffffffff163373ffffffffffffffffffffffffffffffffffffffff16146122e0576040517f08c379a00000000000000000000000000000000000000000000000000000000081526004016122d790614cef565b60405180910390fd5b6064811115612324576040517f08c379a000000000000000000000000000000000000000000000000000000000815260040161231b90614a0f565b60405180910390fd5b80600d8190555061233f816064613bc690919063ffffffff16565b600e819055506004547f023010bc68e7f4c0be9887f513c570c7a0f5f511b9716abccd42bf3b8943532b600d54600e5460405161237d929190614e53565b60405180910390a250565b6000806002600085815260200190815260200160002060008473ffffffffffffffffffffffffffffffffffffffff1673ffffffffffffffffffffffffffffffffffffffff1681526020019081526020016000206040518060600160405290816000820160009054906101000a900460ff166001811115612431577f4e487b7100000000000000000000000000000000000000000000000000000000600052602160045260246000fd5b6001811115612469577f4e487b7100000000000000000000000000000000000000000000000000000000600052602160045260246000fd5b8152602001600182015481526020016002820160009054906101000a900460ff16151515158152505090506000600160008681526020019081526020016000206040518061018001604052908160008201548152602001600182015481526020016002820154815260200160038201548152602001600482015481526020016005820154815260200160068201548152602001600782015481526020016008820154815260200160098201548152602001600a8201548152602001600b820160009054906101000a900460ff16151515158152505090508060a001518160800151141561255b5760009250505061268a565b8061016001518015612685575080608001518160a001511380156125f35750600060018111156125b4577f4e487b7100000000000000000000000000000000000000000000000000000000600052602160045260246000fd5b826000015160018111156125f1577f4e487b7100000000000000000000000000000000000000000000000000000000600052602160045260246000fd5b145b80612684575080608001518160a001511280156126835750600180811115612644577f4e487b7100000000000000000000000000000000000000000000000000000000600052602160045260246000fd5b82600001516001811115612681577f4e487b7100000000000000000000000000000000000000000000000000000000600052602160045260246000fd5b145b5b5b925050505b92915050565b612698611805565b156126d8576040517f08c379a00000000000000000000000000000000000000000000000000000000081526004016126cf90614baf565b60405180910390fd5b6126e133613224565b15612721576040517f08c379a000000000000000000000000000000000000000000000000000000000815260040161271890614c6f565b60405180910390fd5b3273ffffffffffffffffffffffffffffffffffffffff163373ffffffffffffffffffffffffffffffffffffffff161461278f576040517f08c379a0000000000000000000000000000000000000000000000000000000008152600401612786906149ef565b60405180910390fd5b61279a6004546133b9565b6127d9576040517f08c379a00000000000000000000000000000000000000000000000000000000081526004016127d090614c8f565b60405180910390fd5b600060026000600454815260200190815260200160002060003373ffffffffffffffffffffffffffffffffffffffff1673ffffffffffffffffffffffffffffffffffffffff1681526020019081526020016000206001015414612871576040517f08c379a000000000000000000000000000000000000000000000000000000000815260040161286890614d4f565b60405180910390fd5b600f548110156128b6576040517f08c379a00000000000000000000000000000000000000000000000000000000081526004016128ad90614c0f565b60405180910390fd5b601260009054906101000a900473ffffffffffffffffffffffffffffffffffffffff1673ffffffffffffffffffffffffffffffffffffffff166323b872dd3330846040518463ffffffff1660e01b81526004016129159392919061490d565b602060405180830381600087803b15801561292f57600080fd5b505af1158015612943573d6000803e3d6000fd5b505050506040513d601f19601f820116820180604052508101906129679190613df9565b6129a6576040517f08c379a000000000000000000000000000000000000000000000000000000000815260040161299d90614a8f565b60405180910390fd5b6000819050600060016000600454815260200190815260200160002090506129db82826006015461342190919063ffffffff16565b81600601819055506129fa82826008015461342190919063ffffffff16565b8160080181905550600060026000600454815260200190815260200160002060003373ffffffffffffffffffffffffffffffffffffffff1673ffffffffffffffffffffffffffffffffffffffff168152602001908152602001600020905060018160000160006101000a81548160ff02191690836001811115612aa6577f4e487b7100000000000000000000000000000000000000000000000000000000600052602160045260246000fd5b0217905550828160010181905550600360003373ffffffffffffffffffffffffffffffffffffffff1673ffffffffffffffffffffffffffffffffffffffff16815260200190815260200160002060045490806001815401808255809150506001900390600052602060002001600090919091909150556004543373ffffffffffffffffffffffffffffffffffffffff16600180811115612b6f577f4e487b7100000000000000000000000000000000000000000000000000000000600052602160045260246000fd5b7f6c6fb072b0f1fdeb7fc4e51fb0c21cc463eeaa32571ef3ce8e765c607cedf51e86604051612b9e9190614e0f565b60405180910390a450505050565b600860009054906101000a900473ffffffffffffffffffffffffffffffffffffffff1673ffffffffffffffffffffffffffffffffffffffff163373ffffffffffffffffffffffffffffffffffffffff1614612c3c576040517f08c379a0000000000000000000000000000000000000000000000000000000008152600401612c3390614cef565b60405180910390fd5b600554811115612c81576040517f08c379a0000000000000000000000000000000000000000000000000000000008152600401612c7890614dcf565b60405180910390fd5b8060068190555050565b606481565b600860009054906101000a900473ffffffffffffffffffffffffffffffffffffffff1673ffffffffffffffffffffffffffffffffffffffff163373ffffffffffffffffffffffffffffffffffffffff1614612d20576040517f08c379a0000000000000000000000000000000000000000000000000000000008152600401612d1790614cef565b60405180910390fd5b600073ffffffffffffffffffffffffffffffffffffffff168173ffffffffffffffffffffffffffffffffffffffff161415612d90576040517f08c379a0000000000000000000000000000000000000000000000000000000008152600401612d8790614bcf565b60405180910390fd5b80600960006101000a81548173ffffffffffffffffffffffffffffffffffffffff021916908373ffffffffffffffffffffffffffffffffffffffff16021790555050565b600860009054906101000a900473ffffffffffffffffffffffffffffffffffffffff1673ffffffffffffffffffffffffffffffffffffffff163373ffffffffffffffffffffffffffffffffffffffff1614612e64576040517f08c379a0000000000000000000000000000000000000000000000000000000008152600401612e5b90614cef565b60405180910390fd5b8060108190555050565b600c5481565b600960009054906101000a900473ffffffffffffffffffffffffffffffffffffffff1673ffffffffffffffffffffffffffffffffffffffff163373ffffffffffffffffffffffffffffffffffffffff1614612f04576040517f08c379a0000000000000000000000000000000000000000000000000000000008152600401612efb90614d2f565b60405180910390fd5b612f0c611805565b15612f4c576040517f08c379a0000000000000000000000000000000000000000000000000000000008152600401612f4390614baf565b60405180910390fd5b601160009054906101000a900460ff16612f9b576040517f08c379a0000000000000000000000000000000000000000000000000000000008152600401612f9290614aef565b60405180910390fd5b601160019054906101000a900460ff1615612feb576040517f08c379a0000000000000000000000000000000000000000000000000000000008152600401612fe290614b2f565b60405180910390fd5b6130186006546001600060045481526020019081526020016000206002015461342190919063ffffffff16565b42111561305a576040517f08c379a000000000000000000000000000000000000000000000000000000000815260040161305190614b0f565b60405180910390fd5b6000613064613437565b9050613072600454826135af565b60016004546130819190614fb7565b600481905550613092600454613304565b6001601160016101000a81548160ff02191690831515021790555050565b600360205281600052604060002081815481106130cc57600080fd5b90600052602060002001600091509150505481565b600e5481565b60065481565b601160009054906101000a900460ff1681565b600860009054906101000a900473ffffffffffffffffffffffffffffffffffffffff1681565b600f5481565b6000601260009054906101000a900473ffffffffffffffffffffffffffffffffffffffff1673ffffffffffffffffffffffffffffffffffffffff1663a9059cbb84846040518363ffffffff1660e01b815260040161318b929190614944565b602060405180830381600087803b1580156131a557600080fd5b505af11580156131b9573d6000803e3d6000fd5b505050506040513d601f19601f820116820180604052508101906131dd9190613df9565b90508061321f576040517f08c379a000000000000000000000000000000000000000000000000000000000815260040161321690614a8f565b60405180910390fd5b505050565b600080823b905060008111915050919050565b60008183613245919061503e565b905092915050565b6000818361325b919061500d565b905092915050565b61326b611805565b6132aa576040517f08c379a00000000000000000000000000000000000000000000000000000000081526004016132a190614a2f565b60405180910390fd5b60008060006101000a81548160ff0219169083151502179055507f5db9ee0a495bf2e6ff9c91a7834c1ba4fdd244a5e8aa4e537bd38aeae4b073aa6132ed613bdc565b6040516132fa91906148f2565b60405180910390a1565b60006001600083815260200190815260200160002090504281600101819055506133396005544261342190919063ffffffff16565b81600201819055506133626002600554613353919061503e565b4261342190919063ffffffff16565b816003018190555081816000018190555060008160060181905550817f0e5543feb86a4cd302f2b88b26c42be2d1673013a34e1f98bd6d524dd3b4ab41426040516133ad9190614e0f565b60405180910390a25050565b6000806001600084815260200190815260200160002060010154905060006001600085815260200190815260200160002060020154905060008214158015613402575060008114155b801561340d57508142115b801561341857508042105b92505050919050565b6000818361342f9190614fb7565b905092915050565b60008061344f6010544261342190919063ffffffff16565b90506000806000600b60009054906101000a900473ffffffffffffffffffffffffffffffffffffffff1673ffffffffffffffffffffffffffffffffffffffff1663feaf968c6040518163ffffffff1660e01b815260040160a06040518083038186803b1580156134be57600080fd5b505afa1580156134d2573d6000803e3d6000fd5b505050506040513d601f19601f820116820180604052508101906134f69190613e87565b509350509250925083811115613541576040517f08c379a000000000000000000000000000000000000000000000000000000000815260040161353890614c4f565b60405180910390fd5b600c548369ffffffffffffffffffff161015613592576040517f08c379a000000000000000000000000000000000000000000000000000000000815260040161358990614d8f565b60405180910390fd5b8269ffffffffffffffffffff16600c819055508194505050505090565b600060016000848152602001908152602001600020600101541415613609576040517f08c379a000000000000000000000000000000000000000000000000000000000815260040161360090614acf565b60405180910390fd5b600160008381526020019081526020016000206002015442101580156136595750613655600654600160008581526020019081526020016000206002015461342190919063ffffffff16565b4211155b613698576040517f08c379a000000000000000000000000000000000000000000000000000000000815260040161368f90614caf565b60405180910390fd5b6136a28282613be4565b5050565b600060016000848152602001908152602001600020600201541415613700576040517f08c379a00000000000000000000000000000000000000000000000000000000081526004016136f790614bef565b60405180910390fd5b60016000838152602001908152602001600020600301544210158015613750575061374c600654600160008581526020019081526020016000206003015461342190919063ffffffff16565b4211155b61378f576040517f08c379a000000000000000000000000000000000000000000000000000000000815260040161378690614aaf565b60405180910390fd5b6137998282613c47565b5050565b60646137b6600e54600d5461342190919063ffffffff16565b146137f6576040517f08c379a00000000000000000000000000000000000000000000000000000000081526004016137ed90614c2f565b60405180910390fd5b600060016000838152602001908152602001600020600901541480156138325750600060016000838152602001908152602001600020600a0154145b613871576040517f08c379a000000000000000000000000000000000000000000000000000000000815260040161386890614b8f565b60405180910390fd5b6000600160008381526020019081526020016000209050600080600083600401548460050154131561390557836007015492506138d060646138c2600d54876006015461323790919063ffffffff16565b61324d90919063ffffffff16565b91506138fe60646138f0600e54876006015461323790919063ffffffff16565b61324d90919063ffffffff16565b905061398e565b83600401548460050154121561397d5783600801549250613948606461393a600d54876006015461323790919063ffffffff16565b61324d90919063ffffffff16565b91506139766064613968600e54876006015461323790919063ffffffff16565b61324d90919063ffffffff16565b905061398d565b6000925060009150836006015490505b5b8284600901819055508184600a01819055506139b581600a5461342190919063ffffffff16565b600a81905550847f6dfdfcb09c8804d0058826cd2539f1acfbe3cb887c9be03d928035bce0f1a58d8484846040516139ef93929190614e7c565b60405180910390a25050505050565b601160009054906101000a900460ff16613a4d576040517f08c379a0000000000000000000000000000000000000000000000000000000008152600401613a4490614b6f565b60405180910390fd5b600060016000600284613a609190615098565b8152602001908152602001600020600301541415613ab3576040517f08c379a0000000000000000000000000000000000000000000000000000000008152600401613aaa90614d6f565b60405180910390fd5b60016000600283613ac49190615098565b815260200190815260200160002060030154421015613b18576040517f08c379a0000000000000000000000000000000000000000000000000000000008152600401613b0f90614d0f565b60405180910390fd5b613b2181613304565b50565b613b2c611805565b15613b6c576040517f08c379a0000000000000000000000000000000000000000000000000000000008152600401613b6390614baf565b60405180910390fd5b60016000806101000a81548160ff0219169083151502179055507f62e78cea01bee320cd4e420270b5ea74000d11b0c9f74754ebdbfc544b05a258613baf613bdc565b604051613bbc91906148f2565b60405180910390a1565b60008183613bd49190615098565b905092915050565b600033905090565b6000600160008481526020019081526020016000209050818160040181905550827f482e76a65b448a42deef26e99e58fb20c85e26f075defff8df6aa80459b39006428360040154604051613c3a929190614e2a565b60405180910390a2505050565b6000600160008481526020019081526020016000209050818160050181905550600181600b0160006101000a81548160ff021916908315150217905550827fb6ff1fe915db84788cbbbc017f0d2bef9485fad9fd0bd8ce9340fde0d8410dd8428360050154604051613cba929190614e2a565b60405180910390a2505050565b600081359050613cd681615243565b92915050565b600081519050613ceb8161525a565b92915050565b600081519050613d0081615271565b92915050565b600081359050613d1581615288565b92915050565b600081519050613d2a81615288565b92915050565b600081519050613d3f8161529f565b92915050565b600060208284031215613d5757600080fd5b6000613d6584828501613cc7565b91505092915050565b60008060408385031215613d8157600080fd5b6000613d8f85828601613cc7565b9250506020613da085828601613d06565b9150509250929050565b600080600060608486031215613dbf57600080fd5b6000613dcd86828701613cc7565b9350506020613dde86828701613d06565b9250506040613def86828701613d06565b9150509250925092565b600060208284031215613e0b57600080fd5b6000613e1984828501613cdc565b91505092915050565b600060208284031215613e3457600080fd5b6000613e4284828501613d06565b91505092915050565b60008060408385031215613e5e57600080fd5b6000613e6c85828601613d06565b9250506020613e7d85828601613cc7565b9150509250929050565b600080600080600060a08688031215613e9f57600080fd5b6000613ead88828901613d30565b9550506020613ebe88828901613cf1565b9450506040613ecf88828901613d1b565b9350506060613ee088828901613d1b565b9250506080613ef188828901613d30565b9150509295509295909350565b6000613f0a83836148d4565b60208301905092915050565b613f1f816150cc565b82525050565b6000613f3082614f7d565b613f3a8185614f95565b9350613f4583614f6d565b8060005b83811015613f76578151613f5d8882613efe565b9750613f6883614f88565b925050600181019050613f49565b5085935050505092915050565b613f8c816150de565b82525050565b613f9b81615147565b82525050565b613faa816150fd565b82525050565b6000613fbd601a83614fa6565b91507f70726f787920636f6e7472616374206e6f7420616c6c6f7765640000000000006000830152602082019050919050565b6000613ffd601b83614fa6565b91507f726577617264526174652063616e6e6f74206265203e203130302500000000006000830152602082019050919050565b600061403d601483614fa6565b91507f5061757361626c653a206e6f74207061757365640000000000000000000000006000830152602082019050919050565b600061407d601783614fa6565b91507f4e6f7420656c696769626c6520666f7220726566756e640000000000000000006000830152602082019050919050565b60006140bd602183614fa6565b91507f43616e206f6e6c792072756e2061667465722067656e6573697320726f756e6460008301527f73000000000000000000000000000000000000000000000000000000000000006020830152604082019050919050565b6000614123601983614fa6565b91507f4661696c75726520696e20746f6b656e207472616e73666572000000000000006000830152602082019050919050565b6000614163602583614fa6565b91507f43616e206f6e6c7920656e64206265747765656e20656e6454696d652026206260008301527f75666665720000000000000000000000000000000000000000000000000000006020830152604082019050919050565b60006141c9601183614fa6565b91507f526f756e64206e6f7420737461727465640000000000000000000000000000006000830152602082019050919050565b6000614209603183614fa6565b91507f43616e206f6e6c792072756e2061667465722067656e6573697353746172745260008301527f6f756e64206973207472696767657265640000000000000000000000000000006020830152604082019050919050565b600061426f602183614fa6565b91507f43616e206f6e6c79206c6f636b20726f756e642077697468696e20627566666560008301527f72000000000000000000000000000000000000000000000000000000000000006020830152604082019050919050565b60006142d5601183614fa6565b91507f43616e206f6e6c792072756e206f6e63650000000000000000000000000000006000830152602082019050919050565b6000614315601683614fa6565b91507f4e6f7420656c696769626c6520666f7220636c61696d000000000000000000006000830152602082019050919050565b6000614355601f83614fa6565b91507f67656e657369735374617274526f756e64206e6f7420747269676765726564006000830152602082019050919050565b6000614395601283614fa6565b91507f526577617264732063616c63756c6174656400000000000000000000000000006000830152602082019050919050565b60006143d5601083614fa6565b91507f5061757361626c653a20706175736564000000000000000000000000000000006000830152602082019050919050565b6000614415601683614fa6565b91507f43616e6e6f74206265207a65726f2061646472657373000000000000000000006000830152602082019050919050565b6000614455601383614fa6565b91507f726f756e6420646f65736e2774206578697374000000000000000000000000006000830152602082019050919050565b6000614495601683614fa6565b91507f5f616d6f756e74203c206d696e426574416d6f756e74000000000000000000006000830152602082019050919050565b60006144d5601e83614fa6565b91507f726577617264526174652b74726561737572795261746520213d2031303000006000830152602082019050919050565b6000614515602483614fa6565b91507f4f7261636c6520757064617465206578636565646564206d617820616c6c6f7760008301527f616e6365000000000000000000000000000000000000000000000000000000006020830152604082019050919050565b600061457b601483614fa6565b91507f636f6e7472616374206e6f7420616c6c6f7765640000000000000000000000006000830152602082019050919050565b60006145bb601283614fa6565b91507f526f756e64206e6f74206265747461626c6500000000000000000000000000006000830152602082019050919050565b60006145fb602783614fa6565b91507f43616e206f6e6c79206c6f636b206265747765656e206c6f636b54696d65202660008301527f20627566666572000000000000000000000000000000000000000000000000006020830152604082019050919050565b6000614661600b83614fa6565b91507f6f776e65723a207775743f0000000000000000000000000000000000000000006000830152602082019050919050565b60006146a1600b83614fa6565b91507f61646d696e3a207775743f0000000000000000000000000000000000000000006000830152602082019050919050565b60006146e1601d83614fa6565b91507f526f756e64206e2d3220656e6454696d65206e6f7420726561636865640000006000830152602082019050919050565b6000614721600e83614fa6565b91507f6f70657261746f723a207775743f0000000000000000000000000000000000006000830152602082019050919050565b6000614761601b83614fa6565b91507f43616e206f6e6c7920626574206f6e63652070657220726f756e6400000000006000830152602082019050919050565b60006147a1601383614fa6565b91507f526f756e64206e2d32206e6f7420656e646564000000000000000000000000006000830152602082019050919050565b60006147e1601e83614fa6565b91507f4f7261636c652075706461746520726f756e644964203c206f6c6420696400006000830152602082019050919050565b6000614821600f83614fa6565b91507f526f756e64206e6f7420656e64656400000000000000000000000000000000006000830152602082019050919050565b6000614861601c83614fa6565b91507f43616e6e6f74206265206d6f7265207468616e20696e74657276616c000000006000830152602082019050919050565b60006148a1600f83614fa6565b91507f5265776172647320636c61696d656400000000000000000000000000000000006000830152602082019050919050565b6148dd81615127565b82525050565b6148ec81615127565b82525050565b60006020820190506149076000830184613f16565b92915050565b60006060820190506149226000830186613f16565b61492f6020830185613f16565b61493c60408301846148e3565b949350505050565b60006040820190506149596000830185613f16565b61496660208301846148e3565b9392505050565b600060408201905081810360008301526149878185613f25565b905061499660208301846148e3565b9392505050565b60006020820190506149b26000830184613f83565b92915050565b60006060820190506149cd6000830186613f92565b6149da60208301856148e3565b6149e76040830184613f83565b949350505050565b60006020820190508181036000830152614a0881613fb0565b9050919050565b60006020820190508181036000830152614a2881613ff0565b9050919050565b60006020820190508181036000830152614a4881614030565b9050919050565b60006020820190508181036000830152614a6881614070565b9050919050565b60006020820190508181036000830152614a88816140b0565b9050919050565b60006020820190508181036000830152614aa881614116565b9050919050565b60006020820190508181036000830152614ac881614156565b9050919050565b60006020820190508181036000830152614ae8816141bc565b9050919050565b60006020820190508181036000830152614b08816141fc565b9050919050565b60006020820190508181036000830152614b2881614262565b9050919050565b60006020820190508181036000830152614b48816142c8565b9050919050565b60006020820190508181036000830152614b6881614308565b9050919050565b60006020820190508181036000830152614b8881614348565b9050919050565b60006020820190508181036000830152614ba881614388565b9050919050565b60006020820190508181036000830152614bc8816143c8565b9050919050565b60006020820190508181036000830152614be881614408565b9050919050565b60006020820190508181036000830152614c0881614448565b9050919050565b60006020820190508181036000830152614c2881614488565b9050919050565b60006020820190508181036000830152614c48816144c8565b9050919050565b60006020820190508181036000830152614c6881614508565b9050919050565b60006020820190508181036000830152614c888161456e565b9050919050565b60006020820190508181036000830152614ca8816145ae565b9050919050565b60006020820190508181036000830152614cc8816145ee565b9050919050565b60006020820190508181036000830152614ce881614654565b9050919050565b60006020820190508181036000830152614d0881614694565b9050919050565b60006020820190508181036000830152614d28816146d4565b9050919050565b60006020820190508181036000830152614d4881614714565b9050919050565b60006020820190508181036000830152614d6881614754565b9050919050565b60006020820190508181036000830152614d8881614794565b9050919050565b60006020820190508181036000830152614da8816147d4565b9050919050565b60006020820190508181036000830152614dc881614814565b9050919050565b60006020820190508181036000830152614de881614854565b9050919050565b60006020820190508181036000830152614e0881614894565b9050919050565b6000602082019050614e2460008301846148e3565b92915050565b6000604082019050614e3f60008301856148e3565b614e4c6020830184613fa1565b9392505050565b6000604082019050614e6860008301856148e3565b614e7560208301846148e3565b9392505050565b6000606082019050614e9160008301866148e3565b614e9e60208301856148e3565b614eab60408301846148e3565b949350505050565b600061018082019050614ec9600083018f6148e3565b614ed6602083018e6148e3565b614ee3604083018d6148e3565b614ef0606083018c6148e3565b614efd608083018b613fa1565b614f0a60a083018a613fa1565b614f1760c08301896148e3565b614f2460e08301886148e3565b614f326101008301876148e3565b614f406101208301866148e3565b614f4e6101408301856148e3565b614f5c610160830184613f83565b9d9c50505050505050505050505050565b6000819050602082019050919050565b600081519050919050565b6000602082019050919050565b600082825260208201905092915050565b600082825260208201905092915050565b6000614fc282615127565b9150614fcd83615127565b9250827fffffffffffffffffffffffffffffffffffffffffffffffffffffffffffffffff03821115615002576150016151a2565b5b828201905092915050565b600061501882615127565b915061502383615127565b925082615033576150326151d1565b5b828204905092915050565b600061504982615127565b915061505483615127565b9250817fffffffffffffffffffffffffffffffffffffffffffffffffffffffffffffffff048311821515161561508d5761508c6151a2565b5b828202905092915050565b60006150a382615127565b91506150ae83615127565b9250828210156150c1576150c06151a2565b5b828203905092915050565b60006150d782615107565b9050919050565b60008115159050919050565b60008190506150f88261522f565b919050565b6000819050919050565b600073ffffffffffffffffffffffffffffffffffffffff82169050919050565b6000819050919050565b600069ffffffffffffffffffff82169050919050565b6000615152826150ea565b9050919050565b600061516482615127565b91507fffffffffffffffffffffffffffffffffffffffffffffffffffffffffffffffff821415615197576151966151a2565b5b600182019050919050565b7f4e487b7100000000000000000000000000000000000000000000000000000000600052601160045260246000fd5b7f4e487b7100000000000000000000000000000000000000000000000000000000600052601260045260246000fd5b7f4e487b7100000000000000000000000000000000000000000000000000000000600052602160045260246000fd5b600281106152405761523f615200565b5b50565b61524c816150cc565b811461525757600080fd5b50565b615263816150de565b811461526e57600080fd5b50565b61527a816150fd565b811461528557600080fd5b50565b61529181615127565b811461529c57600080fd5b50565b6152a881615131565b81146152b357600080fd5b5056fea2646970667358221220bdb148448f1b276659f35731cf1e609e58cb1f42959670d0d8249803ebd534dc64736f6c63430008000033",
  "immutableReferences": {},
  "source": "// SPDX-License-Identifier: MIT\r\n\r\npragma solidity ^0.8.0;\r\n\r\nimport \"@openzeppelin/contracts/security/Pausable.sol\";\r\nimport \"@openzeppelin/contracts/utils/math/SafeMath.sol\";\r\nimport \"@openzeppelin/contracts/token/ERC20/IERC20.sol\";\r\nimport \"./interfaces/AggregatorV3Interface.sol\";\r\n\r\ncontract PredMarket is Pausable {\r\n    using SafeMath for uint256;\r\n\r\n    struct Round {\r\n        uint256 epoch;\r\n        uint256 startTime;\r\n        uint256 lockTime;\r\n        uint256 endTime;\r\n        int256 lockPrice;\r\n        int256 closePrice;\r\n        uint256 totalAmount;\r\n        uint256 bullAmount;\r\n        uint256 bearAmount;\r\n        uint256 rewardBaseCalAmount;\r\n        uint256 rewardAmount;\r\n        bool oracleCalled;\r\n    }\r\n\r\n    enum Position {\r\n        Bull,\r\n        Bear\r\n    }\r\n\r\n    struct BetInfo {\r\n        Position position;\r\n        uint256 amount;\r\n        bool claimed; // default false\r\n    }\r\n\r\n    mapping(uint256 => Round) public rounds;\r\n    mapping(uint256 => mapping(address => BetInfo)) public ledger;\r\n    mapping(address => uint256[]) public userRounds;\r\n    uint256 public currentEpoch;\r\n    uint256 public interval;\r\n    uint256 public buffer;\r\n    address public owner;\r\n    address public admin;\r\n    address public operator;\r\n    uint256 public treasuryAmount;\r\n    AggregatorV3Interface internal oracle;\r\n    uint256 public oracleRoundId;\r\n\r\n\r\n    uint256 public constant TOTAL_RATE = 100; // 100%\r\n    uint256 public rewardRate = 90; // 90%\r\n    uint256 public treasuryRate = 10; // 10%\r\n    uint256 public minBetAmount;\r\n    uint256 public oracleUpdateAllowance; // seconds\r\n\r\n    bool public genesisStartOnce = false;\r\n    bool public genesisLockOnce = false;\r\n\r\n    //Token on which prediction is performed\r\n    address public tokenPred;\r\n    //Token which is used for staking\r\n    address public tokenStaked;\r\n\r\n    event StartRound(uint256 indexed epoch, uint256 time);\r\n    event LockRound(uint256 indexed epoch, uint256 time, int256 price);\r\n    event EndRound(uint256 indexed epoch, uint256 time, int256 price);\r\n    event Bet(\r\n        Position indexed position,\r\n        address indexed sender,\r\n        uint256 indexed currentEpoch,\r\n        uint256 amount\r\n    );\r\n\r\n    event Claim(\r\n        address indexed sender,\r\n        uint256 indexed currentEpoch,\r\n        uint256 amount\r\n    );\r\n    event ClaimTreasury(uint256 amount);\r\n    event RatesUpdated(\r\n        uint256 indexed epoch,\r\n        uint256 rewardRate,\r\n        uint256 treasuryRate\r\n    );\r\n    event MinBetAmountUpdated(uint256 indexed epoch, uint256 minBetAmount);\r\n    event RewardsCalculated(\r\n        uint256 indexed epoch,\r\n        uint256 rewardBaseCalAmount,\r\n        uint256 rewardAmount,\r\n        uint256 treasuryAmount\r\n    );\r\n    event Pause(uint256 epoch);\r\n    event Unpause(uint256 epoch);\r\n    \r\n    constructor(\r\n        address _tokenPred,\r\n        address _tokenStaked,\r\n        address _oracle,\r\n        address _admin,\r\n        address _operator,\r\n        uint256 _interval,\r\n        uint256 _buffer,\r\n        uint256 _minBetAmount,\r\n        uint256 _oracleUpdateAllowance\r\n    ) public {\r\n        tokenPred = _tokenPred;\r\n        tokenStaked = _tokenStaked;\r\n        oracle = AggregatorV3Interface(_oracle);\r\n        admin = _admin;\r\n        operator = _operator;\r\n        interval = _interval;\r\n        buffer = _buffer;\r\n        minBetAmount = _minBetAmount;\r\n        oracleUpdateAllowance = _oracleUpdateAllowance;\r\n        owner = msg.sender;\r\n    }\r\n\r\n    modifier onlyOwner{\r\n        require(msg.sender == owner, \"owner: wut?\");\r\n        _;\r\n    }\r\n\r\n    modifier onlyAdmin() {\r\n        require(msg.sender == admin, \"admin: wut?\");\r\n        _;\r\n    }\r\n\r\n    modifier onlyOperator() {\r\n        require(msg.sender == operator, \"operator: wut?\");\r\n        _;\r\n    }\r\n\r\n    modifier notContract() {\r\n        require(!_isContract(msg.sender), \"contract not allowed\");\r\n        require(msg.sender == tx.origin, \"proxy contract not allowed\");\r\n        _;\r\n    }\r\n\r\n    /**\r\n     * @dev set admin address\r\n     * callable by owner\r\n     */\r\n    function setAdmin(address _admin) external onlyOwner {\r\n        require(_admin != address(0), \"Cannot be zero address\");\r\n        admin = _admin;\r\n    }\r\n\r\n    /**\r\n     * @dev set operator address\r\n     * callable by admin\r\n     */\r\n    function setOperator(address _operator) external onlyAdmin {\r\n        require(_operator != address(0), \"Cannot be zero address\");\r\n        operator = _operator;\r\n    }\r\n\r\n    /**\r\n     * @dev set interval in seconds\r\n     * callable by admin\r\n     */\r\n    function setInterval(uint256 _interval) external onlyAdmin {\r\n        interval = _interval;\r\n    }\r\n\r\n    /**\r\n     * @dev set buffer in seconds\r\n     * callable by admin\r\n     */\r\n    function setBuffer(uint256 _buffer) external onlyAdmin {\r\n        require(_buffer <= interval, \"Cannot be more than interval\");\r\n        buffer = _buffer;\r\n    }\r\n\r\n    /**\r\n     * @dev set Oracle address\r\n     * callable by admin\r\n     */\r\n    function setOracle(address _oracle) external onlyAdmin {\r\n        require(_oracle != address(0), \"Cannot be zero address\");\r\n        oracle = AggregatorV3Interface(_oracle);\r\n    }\r\n\r\n    /**\r\n     * @dev set oracle update allowance\r\n     * callable by admin\r\n     */\r\n    function setOracleUpdateAllowance(uint256 _oracleUpdateAllowance)\r\n        external\r\n        onlyAdmin\r\n    {\r\n        oracleUpdateAllowance = _oracleUpdateAllowance;\r\n    }\r\n\r\n    /**\r\n     * @dev set reward rate\r\n     * callable by admin\r\n     */\r\n    function setRewardRate(uint256 _rewardRate) external onlyAdmin {\r\n        require(\r\n            _rewardRate <= TOTAL_RATE,\r\n            \"rewardRate cannot be > 100%\"\r\n        );\r\n        rewardRate = _rewardRate;\r\n        treasuryRate = TOTAL_RATE.sub(_rewardRate);\r\n\r\n        emit RatesUpdated(currentEpoch, rewardRate, treasuryRate);\r\n    }\r\n\r\n    /**\r\n     * @dev set minBetAmount\r\n     * callable by admin\r\n     */\r\n    function setMinBetAmount(uint256 _minBetAmount) external onlyAdmin {\r\n        minBetAmount = _minBetAmount;\r\n\r\n        emit MinBetAmountUpdated(currentEpoch, minBetAmount);\r\n    }\r\n\r\n    /**\r\n     * @dev Start genesis round\r\n     */\r\n    function genesisStartRound() external onlyOperator whenNotPaused {\r\n        require(!genesisStartOnce, \"Can only run once\");\r\n\r\n        currentEpoch = currentEpoch + 1;\r\n        _startRound(currentEpoch);\r\n        genesisStartOnce = true;\r\n    }\r\n\r\n    /**\r\n     * @dev Lock genesis round\r\n     */\r\n    function genesisLockRound() external onlyOperator whenNotPaused {\r\n        require(\r\n            genesisStartOnce,\r\n            \"Can only run after genesisStartRound is triggered\"\r\n        );\r\n        require(!genesisLockOnce, \"Can only run once\");\r\n        require(\r\n            block.timestamp <= rounds[currentEpoch].lockTime.add(buffer),\r\n            \"Can only lock round within buffer\"\r\n        );\r\n\r\n        int256 currentPrice = _getPriceFromOracle();\r\n        _safeLockRound(currentEpoch, currentPrice);\r\n\r\n        currentEpoch = currentEpoch + 1;\r\n        _startRound(currentEpoch);\r\n        genesisLockOnce = true;\r\n    }\r\n\r\n    /**\r\n     * @dev Start the next round n, lock price for round n-1, end round n-2\r\n     */\r\n    function executeRound() external onlyOperator whenNotPaused {\r\n        require(\r\n            genesisStartOnce && genesisLockOnce,\r\n            \"Can only run after genesis rounds\"\r\n        );\r\n\r\n        int256 currentPrice = _getPriceFromOracle();\r\n        // CurrentEpoch refers to previous round (n-1)\r\n        _safeLockRound(currentEpoch, currentPrice);\r\n        _safeEndRound(currentEpoch - 1, currentPrice);\r\n        _calculateRewards(currentEpoch - 1);\r\n\r\n        // Increment currentEpoch to current round (n)\r\n        currentEpoch = currentEpoch + 1;\r\n        _safeStartRound(currentEpoch);\r\n    }\r\n\r\n    /**\r\n     * @dev Bet bear position\r\n     */\r\n    function betBear(uint256 _amount) external whenNotPaused notContract {\r\n\r\n        require(_bettable(currentEpoch), \"Round not bettable\");\r\n        \r\n        require(\r\n            ledger[currentEpoch][msg.sender].amount == 0,\r\n            \"Can only bet once per round\"\r\n        );\r\n\r\n        require(\r\n            _amount >= minBetAmount,\r\n            \"_amount < minBetAmount\"\r\n        );\r\n\r\n        require(\r\n            IERC20(tokenStaked).transferFrom(msg.sender, address(this), _amount),\r\n            \"Failure in token transfer\"\r\n        );\r\n\r\n        uint256 amount = _amount;\r\n\r\n        // Update round data\r\n        Round storage round = rounds[currentEpoch];\r\n        round.totalAmount = round.totalAmount.add(amount);\r\n        round.bearAmount = round.bearAmount.add(amount);\r\n\r\n        // Update user data\r\n        BetInfo storage betInfo = ledger[currentEpoch][msg.sender];\r\n        betInfo.position = Position.Bear;\r\n        betInfo.amount = amount;\r\n        userRounds[msg.sender].push(currentEpoch);\r\n\r\n        emit Bet(Position.Bear, msg.sender, currentEpoch, amount);\r\n    }\r\n\r\n    /**\r\n     * @dev Bet bull position\r\n     */\r\n    function betBull(uint256 _amount) external payable whenNotPaused notContract {\r\n\r\n        require(_bettable(currentEpoch), \"Round not bettable\");\r\n        \r\n        require(\r\n            ledger[currentEpoch][msg.sender].amount == 0,\r\n            \"Can only bet once per round\"\r\n        );\r\n\r\n        require(\r\n            _amount >= minBetAmount,\r\n            \"_amount < minBetAmount\"\r\n        );\r\n\r\n        require(\r\n            IERC20(tokenStaked).transferFrom(msg.sender, address(this), _amount),\r\n            \"Failure in token transfer\"\r\n        );\r\n\r\n        uint256 amount = _amount;\r\n\r\n        // Update round data\r\n        Round storage round = rounds[currentEpoch];\r\n        round.totalAmount = round.totalAmount.add(amount);\r\n        round.bullAmount = round.bullAmount.add(amount);\r\n\r\n        // Update user data\r\n        BetInfo storage betInfo = ledger[currentEpoch][msg.sender];\r\n        betInfo.position = Position.Bull;\r\n        betInfo.amount = amount;\r\n        userRounds[msg.sender].push(currentEpoch);\r\n\r\n        emit Bet(Position.Bull, msg.sender, currentEpoch, amount);\r\n    }\r\n\r\n    function claim(uint256 epoch) external notContract {\r\n        require(rounds[epoch].startTime != 0, \"Round not started\");\r\n        require(block.timestamp > rounds[epoch].endTime, \"Round not ended\");\r\n        require(!ledger[epoch][msg.sender].claimed, \"Rewards claimed\");\r\n\r\n        uint256 reward;\r\n        // Round valid, claim rewards\r\n        if (rounds[epoch].oracleCalled) {\r\n            require(claimable(epoch, msg.sender), \"Not eligible for claim\");\r\n            Round memory round = rounds[epoch];\r\n            reward = ledger[epoch][msg.sender]\r\n            .amount\r\n            .mul(round.rewardAmount)\r\n            .div(round.rewardBaseCalAmount);\r\n        }\r\n        // Round invalid, refund bet amount\r\n        else {\r\n            require(refundable(epoch, msg.sender), \"Not eligible for refund\");\r\n            reward = ledger[epoch][msg.sender].amount;\r\n        }\r\n\r\n        BetInfo storage betInfo = ledger[epoch][msg.sender];\r\n        betInfo.claimed = true;\r\n        _safeTransferToken(address(msg.sender), reward);\r\n\r\n        emit Claim(msg.sender, epoch, reward);\r\n    }\r\n\r\n    /**\r\n     * @dev Claim all rewards in treasury\r\n     * callable by admin\r\n     */\r\n    function claimTreasury() external onlyAdmin {\r\n        uint256 currentTreasuryAmount = treasuryAmount;\r\n        treasuryAmount = 0;\r\n        _safeTransferToken(admin, currentTreasuryAmount);\r\n\r\n        emit ClaimTreasury(currentTreasuryAmount);\r\n    }\r\n\r\n    /**\r\n     * @dev Return round epochs that a user has participated\r\n     */\r\n    function getUserRounds(\r\n        address user,\r\n        uint256 cursor,\r\n        uint256 size\r\n    ) external view returns (uint256[] memory, uint256) {\r\n        uint256 length = size;\r\n        if (length > userRounds[user].length - cursor) {\r\n            length = userRounds[user].length - cursor;\r\n        }\r\n\r\n        uint256[] memory values = new uint256[](length);\r\n        for (uint256 i = 0; i < length; i++) {\r\n            values[i] = userRounds[user][cursor + i];\r\n        }\r\n\r\n        return (values, cursor + length);\r\n    }\r\n\r\n    /**\r\n     * @dev called by the admin to pause, triggers stopped state\r\n     */\r\n    function pause() public onlyAdmin whenNotPaused {\r\n        _pause();\r\n\r\n        emit Pause(currentEpoch);\r\n    }\r\n\r\n    /**\r\n     * @dev called by the admin to unpause, returns to normal state\r\n     * Reset genesis state. Once paused, the rounds would need to be kickstarted by genesis\r\n     */\r\n    function unpause() public onlyAdmin whenPaused {\r\n        genesisStartOnce = false;\r\n        genesisLockOnce = false;\r\n        _unpause();\r\n\r\n        emit Unpause(currentEpoch);\r\n    }\r\n\r\n    /**\r\n     * @dev Get the claimable stats of specific epoch and user account\r\n     */\r\n    function claimable(uint256 epoch, address user) public view returns (bool) {\r\n        BetInfo memory betInfo = ledger[epoch][user];\r\n        Round memory round = rounds[epoch];\r\n        if (round.lockPrice == round.closePrice) {\r\n            return false;\r\n        }\r\n        return\r\n            round.oracleCalled &&\r\n            ((round.closePrice > round.lockPrice &&\r\n                betInfo.position == Position.Bull) ||\r\n                (round.closePrice < round.lockPrice &&\r\n                    betInfo.position == Position.Bear));\r\n    }\r\n\r\n    /**\r\n     * @dev Get the refundable stats of specific epoch and user account\r\n     */\r\n    function refundable(uint256 epoch, address user)\r\n        public\r\n        view\r\n        returns (bool)\r\n    {\r\n        return\r\n            !rounds[epoch].oracleCalled &&\r\n            block.timestamp > rounds[epoch].endTime.add(buffer) &&\r\n            ledger[epoch][user].amount != 0;\r\n    }\r\n\r\n    /**\r\n     * @dev Start round\r\n     * Previous round n-2 must end\r\n     */\r\n    function _safeStartRound(uint256 epoch) internal {\r\n        require(\r\n            genesisStartOnce,\r\n            \"genesisStartRound not triggered\"\r\n        );\r\n        require(\r\n            rounds[epoch - 2].endTime != 0,\r\n            \"Round n-2 not ended\"\r\n        );\r\n        require(\r\n            block.timestamp >= rounds[epoch - 2].endTime,\r\n            \"Round n-2 endTime not reached\"\r\n        );\r\n        _startRound(epoch);\r\n    }\r\n\r\n    function _startRound(uint256 epoch) internal {\r\n        Round storage round = rounds[epoch];\r\n        round.startTime = block.timestamp;\r\n        round.lockTime = block.timestamp.add(interval);\r\n        round.endTime = block.timestamp.add(interval * 2);\r\n        round.epoch = epoch;\r\n        round.totalAmount = 0;\r\n\r\n        emit StartRound(epoch, block.timestamp);\r\n    }\r\n\r\n    /**\r\n     * @dev Lock round\r\n     */\r\n    function _safeLockRound(uint256 epoch, int256 price) internal {\r\n        require(\r\n            rounds[epoch].startTime != 0,\r\n            \"Round not started\"\r\n        );\r\n        require(\r\n            block.timestamp >= rounds[epoch].lockTime &&\r\n            block.timestamp <= rounds[epoch].lockTime.add(buffer),\r\n            \"Can only lock between lockTime & buffer\"\r\n        );\r\n\r\n        _lockRound(epoch, price);\r\n    }\r\n\r\n    function _lockRound(uint256 epoch, int256 price) internal {\r\n        Round storage round = rounds[epoch];\r\n        round.lockPrice = price;\r\n\r\n        emit LockRound(epoch, block.timestamp, round.lockPrice);\r\n    }\r\n\r\n    /**\r\n     * @dev End round\r\n     */\r\n    function _safeEndRound(uint256 epoch, int256 price) internal {\r\n        require(\r\n            rounds[epoch].lockTime != 0,\r\n            \"round doesn't exist\"\r\n        );\r\n        require(\r\n            block.timestamp >= rounds[epoch].endTime &&\r\n            block.timestamp <= rounds[epoch].endTime.add(buffer),\r\n            \"Can only end between endTime & buffer\"\r\n        );\r\n\r\n        _endRound(epoch, price);\r\n    }\r\n\r\n    function _endRound(uint256 epoch, int256 price) internal {\r\n        Round storage round = rounds[epoch];\r\n        round.closePrice = price;\r\n        round.oracleCalled = true;\r\n\r\n        emit EndRound(epoch, block.timestamp, round.closePrice);\r\n    }\r\n\r\n    /**\r\n     * @dev Calculate rewards for round\r\n     */\r\n    function _calculateRewards(uint256 epoch) internal {\r\n        require(\r\n            rewardRate.add(treasuryRate) == TOTAL_RATE,\r\n            \"rewardRate+treasuryRate != 100\"\r\n        );\r\n        require(\r\n            rounds[epoch].rewardBaseCalAmount == 0 &&\r\n            rounds[epoch].rewardAmount == 0,\r\n            \"Rewards calculated\"\r\n        );\r\n        Round storage round = rounds[epoch];\r\n        uint256 rewardBaseCalAmount;\r\n        uint256 rewardAmount;\r\n        uint256 treasuryAmt;\r\n        // Bull wins\r\n        if (round.closePrice > round.lockPrice) {\r\n            rewardBaseCalAmount = round.bullAmount;\r\n            rewardAmount = round.totalAmount.mul(rewardRate).div(TOTAL_RATE);\r\n            treasuryAmt = round.totalAmount.mul(treasuryRate).div(TOTAL_RATE);\r\n        }\r\n        // Bear wins\r\n        else if (round.closePrice < round.lockPrice) {\r\n            rewardBaseCalAmount = round.bearAmount;\r\n            rewardAmount = round.totalAmount.mul(rewardRate).div(TOTAL_RATE);\r\n            treasuryAmt = round.totalAmount.mul(treasuryRate).div(TOTAL_RATE);\r\n        }\r\n        // House wins\r\n        else {\r\n            rewardBaseCalAmount = 0;\r\n            rewardAmount = 0;\r\n            treasuryAmt = round.totalAmount;\r\n        }\r\n        round.rewardBaseCalAmount = rewardBaseCalAmount;\r\n        round.rewardAmount = rewardAmount;\r\n\r\n        // Add to treasury\r\n        treasuryAmount = treasuryAmount.add(treasuryAmt);\r\n\r\n        emit RewardsCalculated(\r\n            epoch,\r\n            rewardBaseCalAmount,\r\n            rewardAmount,\r\n            treasuryAmt\r\n        );\r\n    }\r\n\r\n    /**\r\n     * @dev Get latest recorded price from oracle\r\n     * If it falls below allowed buffer or has not updated, it would be invalid\r\n     */\r\n    function _getPriceFromOracle() internal returns (int256) {\r\n        uint256 allowedTime = block.timestamp.add(\r\n            oracleUpdateAllowance\r\n        );\r\n        (uint80 roundId, int256 price, , uint256 timestamp, ) = oracle\r\n        .latestRoundData();\r\n        require(\r\n            timestamp <= allowedTime,\r\n            \"Oracle update exceeded max allowance\"\r\n        );\r\n        require(\r\n            roundId >= oracleRoundId,\r\n            \"Oracle update roundId < old id\"\r\n        );\r\n        oracleRoundId = uint256(roundId);\r\n        return price;\r\n    }\r\n\r\n    function _safeTransferToken(address to, uint256 value) internal {\r\n        bool success = IERC20(tokenStaked).transfer(to, value);\r\n        require(success, \"Failure in token transfer\");    \r\n    }\r\n\r\n    function _isContract(address addr) internal view returns (bool) {\r\n        uint256 size;\r\n        assembly {\r\n            size := extcodesize(addr)\r\n        }\r\n        return size > 0;\r\n    }\r\n\r\n    /**\r\n     * @dev Determine if a round is valid for receiving bets\r\n     * Round must have started and locked\r\n     * Current time must be within startTime and endTime\r\n     */\r\n    function _bettable(uint256 epoch) internal view returns (bool) {\r\n        uint256 startTime = rounds[epoch].startTime;\r\n        uint256 lockTime = rounds[epoch].lockTime;\r\n        return\r\n            startTime != 0 &&\r\n            lockTime != 0 &&\r\n            block.timestamp > startTime &&\r\n            block.timestamp < lockTime;\r\n    }\r\n}\r\n\r\n\r\n",
  "sourcePath": "C:\\Users\\Shivam Agrawal\\Desktop\\TokenTokenPredMarkets\\contracts\\PredMarket.sol",
  "compiler": {
    "name": "solc",
    "version": "0.8.0+commit.c7dfd78e.Emscripten.clang"
  },
  "schemaVersion": "3.4.4",
  "updatedAt": "2022-01-14T18:54:35.032Z",
  "devdoc": {
    "kind": "dev",
    "methods": {
      "betBear(uint256)": {
        "details": "Bet bear position"
      },
      "betBull(uint256)": {
        "details": "Bet bull position"
      },
      "claimTreasury()": {
        "details": "Claim all rewards in treasury callable by admin"
      },
      "claimable(uint256,address)": {
        "details": "Get the claimable stats of specific epoch and user account"
      },
      "executeRound()": {
        "details": "Start the next round n, lock price for round n-1, end round n-2"
      },
      "genesisLockRound()": {
        "details": "Lock genesis round"
      },
      "genesisStartRound()": {
        "details": "Start genesis round"
      },
      "getUserRounds(address,uint256,uint256)": {
        "details": "Return round epochs that a user has participated"
      },
      "pause()": {
        "details": "called by the admin to pause, triggers stopped state"
      },
      "paused()": {
        "details": "Returns true if the contract is paused, and false otherwise."
      },
      "refundable(uint256,address)": {
        "details": "Get the refundable stats of specific epoch and user account"
      },
      "setAdmin(address)": {
        "details": "set admin address callable by owner"
      },
      "setBuffer(uint256)": {
        "details": "set buffer in seconds callable by admin"
      },
      "setInterval(uint256)": {
        "details": "set interval in seconds callable by admin"
      },
      "setMinBetAmount(uint256)": {
        "details": "set minBetAmount callable by admin"
      },
      "setOperator(address)": {
        "details": "set operator address callable by admin"
      },
      "setOracle(address)": {
        "details": "set Oracle address callable by admin"
      },
      "setOracleUpdateAllowance(uint256)": {
        "details": "set oracle update allowance callable by admin"
      },
      "setRewardRate(uint256)": {
        "details": "set reward rate callable by admin"
      },
      "unpause()": {
        "details": "called by the admin to unpause, returns to normal state Reset genesis state. Once paused, the rounds would need to be kickstarted by genesis"
      }
    },
    "version": 1
  },
  "userdoc": {
    "kind": "user",
    "methods": {},
    "version": 1
  }
}