{
  "contractName": "PredMarketFactory",
  "abi": [
    {
      "inputs": [],
      "stateMutability": "nonpayable",
      "type": "constructor"
    },
    {
      "anonymous": false,
      "inputs": [
        {
          "indexed": true,
          "internalType": "address",
          "name": "tokenPred",
          "type": "address"
        }
      ],
      "name": "MarketCreated",
      "type": "event"
    },
    {
      "inputs": [
        {
          "internalType": "address",
          "name": "",
          "type": "address"
        }
      ],
      "name": "markets",
      "outputs": [
        {
          "internalType": "address",
          "name": "",
          "type": "address"
        }
      ],
      "stateMutability": "view",
      "type": "function"
    },
    {
      "inputs": [],
      "name": "owner",
      "outputs": [
        {
          "internalType": "address",
          "name": "",
          "type": "address"
        }
      ],
      "stateMutability": "view",
      "type": "function"
    },
    {
      "inputs": [
        {
          "internalType": "address",
          "name": "_token",
          "type": "address"
        },
        {
          "internalType": "address",
          "name": "_oracle",
          "type": "address"
        },
        {
          "internalType": "address",
          "name": "_admin",
          "type": "address"
        },
        {
          "internalType": "address",
          "name": "_operator",
          "type": "address"
        },
        {
          "internalType": "uint256",
          "name": "_interval",
          "type": "uint256"
        },
        {
          "internalType": "uint256",
          "name": "_buffer",
          "type": "uint256"
        },
        {
          "internalType": "uint256",
          "name": "_minBetAmount",
          "type": "uint256"
        },
        {
          "internalType": "uint256",
          "name": "_oracleUpdateAllowance",
          "type": "uint256"
        }
      ],
      "name": "createTokenPredNativeStaking",
      "outputs": [],
      "stateMutability": "nonpayable",
      "type": "function"
    },
    {
      "inputs": [
        {
          "internalType": "address",
          "name": "_owner",
          "type": "address"
        }
      ],
      "name": "changeOwner",
      "outputs": [],
      "stateMutability": "nonpayable",
      "type": "function"
    }
  ],
  "bytecode": "0x608060405234801561001057600080fd5b50336000806101000a81548173ffffffffffffffffffffffffffffffffffffffff021916908373ffffffffffffffffffffffffffffffffffffffff160217905550615e85806100606000396000f3fe60806040523480156200001157600080fd5b5060043610620000525760003560e01c80638da5cb5b14620000575780638e8f294b1462000079578063a6f9dae114620000af578063c98eb4fe14620000cf575b600080fd5b62000061620000ef565b604051620000709190620004e6565b60405180910390f35b62000097600480360381019062000091919062000539565b62000113565b604051620000a69190620004e6565b60405180910390f35b620000cd6004803603810190620000c7919062000539565b62000146565b005b620000ed6004803603810190620000e79190620005a6565b6200021a565b005b60008054906101000a900473ffffffffffffffffffffffffffffffffffffffff1681565b60016020528060005260406000206000915054906101000a900473ffffffffffffffffffffffffffffffffffffffff1681565b3373ffffffffffffffffffffffffffffffffffffffff1660008054906101000a900473ffffffffffffffffffffffffffffffffffffffff1673ffffffffffffffffffffffffffffffffffffffff1614620001d7576040517f08c379a0000000000000000000000000000000000000000000000000000000008152600401620001ce90620006d0565b60405180910390fd5b806000806101000a81548173ffffffffffffffffffffffffffffffffffffffff021916908373ffffffffffffffffffffffffffffffffffffffff16021790555050565b3373ffffffffffffffffffffffffffffffffffffffff1660008054906101000a900473ffffffffffffffffffffffffffffffffffffffff1673ffffffffffffffffffffffffffffffffffffffff1614620002ab576040517f08c379a0000000000000000000000000000000000000000000000000000000008152600401620002a290620006d0565b60405180910390fd5b600073ffffffffffffffffffffffffffffffffffffffff16600160008a73ffffffffffffffffffffffffffffffffffffffff1673ffffffffffffffffffffffffffffffffffffffff16815260200190815260200160002060009054906101000a900473ffffffffffffffffffffffffffffffffffffffff1673ffffffffffffffffffffffffffffffffffffffff16146200037c576040517f08c379a0000000000000000000000000000000000000000000000000000000008152600401620003739062000742565b60405180910390fd5b60008888888888888888604051620003949062000493565b620003a798979695949392919062000775565b604051809103906000f080158015620003c4573d6000803e3d6000fd5b50905080600160008b73ffffffffffffffffffffffffffffffffffffffff1673ffffffffffffffffffffffffffffffffffffffff16815260200190815260200160002060006101000a81548173ffffffffffffffffffffffffffffffffffffffff021916908373ffffffffffffffffffffffffffffffffffffffff1602179055508873ffffffffffffffffffffffffffffffffffffffff167fb27af04ab132a0b6bba5de2a84bbbadcc31c20c33932936a992ae6ff951259c360405160405180910390a2505050505050505050565b61564c806200080483390190565b600073ffffffffffffffffffffffffffffffffffffffff82169050919050565b6000620004ce82620004a1565b9050919050565b620004e081620004c1565b82525050565b6000602082019050620004fd6000830184620004d5565b92915050565b600080fd5b6200051381620004c1565b81146200051f57600080fd5b50565b600081359050620005338162000508565b92915050565b60006020828403121562000552576200055162000503565b5b6000620005628482850162000522565b91505092915050565b6000819050919050565b62000580816200056b565b81146200058c57600080fd5b50565b600081359050620005a08162000575565b92915050565b600080600080600080600080610100898b031215620005ca57620005c962000503565b5b6000620005da8b828c0162000522565b9850506020620005ed8b828c0162000522565b9750506040620006008b828c0162000522565b9650506060620006138b828c0162000522565b9550506080620006268b828c016200058f565b94505060a0620006398b828c016200058f565b93505060c06200064c8b828c016200058f565b92505060e06200065f8b828c016200058f565b9150509295985092959890939650565b600082825260208201905092915050565b7f4f6e6c79206f776e65722066756e6374696f6e00000000000000000000000000600082015250565b6000620006b86013836200066f565b9150620006c58262000680565b602082019050919050565b60006020820190508181036000830152620006eb81620006a9565b9050919050565b7f416c7265616479206465706c6f79656400000000000000000000000000000000600082015250565b60006200072a6010836200066f565b91506200073782620006f2565b602082019050919050565b600060208201905081810360008301526200075d816200071b565b9050919050565b6200076f816200056b565b82525050565b6000610100820190506200078d600083018b620004d5565b6200079c602083018a620004d5565b620007ab6040830189620004d5565b620007ba6060830188620004d5565b620007c9608083018762000764565b620007d860a083018662000764565b620007e760c083018562000764565b620007f660e083018462000764565b999850505050505050505056fe6080604052605a600d55600a600e556000601160006101000a81548160ff0219169083151502179055506000601160016101000a81548160ff0219169083151502179055503480156200005157600080fd5b506040516200564c3803806200564c8339818101604052810190620000779190620002a5565b60008060006101000a81548160ff02191690831515021790555087601160026101000a81548173ffffffffffffffffffffffffffffffffffffffff021916908373ffffffffffffffffffffffffffffffffffffffff16021790555086600b60006101000a81548173ffffffffffffffffffffffffffffffffffffffff021916908373ffffffffffffffffffffffffffffffffffffffff16021790555085600860006101000a81548173ffffffffffffffffffffffffffffffffffffffff021916908373ffffffffffffffffffffffffffffffffffffffff16021790555084600960006101000a81548173ffffffffffffffffffffffffffffffffffffffff021916908373ffffffffffffffffffffffffffffffffffffffff160217905550836005819055508260068190555081600f819055508060108190555033600760006101000a81548173ffffffffffffffffffffffffffffffffffffffff021916908373ffffffffffffffffffffffffffffffffffffffff16021790555050505050505050506200036e565b600080fd5b600073ffffffffffffffffffffffffffffffffffffffff82169050919050565b6000620002328262000205565b9050919050565b620002448162000225565b81146200025057600080fd5b50565b600081519050620002648162000239565b92915050565b6000819050919050565b6200027f816200026a565b81146200028b57600080fd5b50565b6000815190506200029f8162000274565b92915050565b600080600080600080600080610100898b031215620002c957620002c862000200565b5b6000620002d98b828c0162000253565b9850506020620002ec8b828c0162000253565b9750506040620002ff8b828c0162000253565b9650506060620003128b828c0162000253565b9550506080620003258b828c016200028e565b94505060a0620003388b828c016200028e565b93505060c06200034b8b828c016200028e565b92505060e06200035e8b828c016200028e565b9150509295985092959890939650565b6152ce806200037e6000396000f3fe60806040526004361061023a5760003560e01c80638c65c81f1161012e578063cf2f5039116100ab578063edaafe201161006f578063edaafe20146107f2578063f7fdec281461081d578063f851a44014610848578063fa968eea14610873578063fc0c546a1461089e5761023a565b8063cf2f50391461071f578063d26abb8914610748578063d9d55eac14610773578063dd1f75961461078a578063e4b72516146107c75761023a565b8063a0c7f71c116100f2578063a0c7f71c14610649578063aa6b873a14610686578063adc7ea37146106a2578063b29c299b146106cb578063b3ab15fb146106f65761023a565b80638c65c81f146105445780638da5cb5b1461058c578063947a36fb146105b7578063951fd600146105e25780639e447fc6146106205761023a565b806360554011116101bc5780637adbf973116101805780637adbf973146104855780637b0a47ee146104ae5780637b3205f5146104d95780637bf41254146104f05780638456cb591461052d5761023a565b8063605540111461039e5780636c188593146103c9578063704b6c02146103f25780637285c58b1461041b578063766718081461045a5761023a565b80633f4ba83a116102035780633f4ba83a146102fe578063452fd75a14610315578063570ca7351461032c57806357fb096f146103575780635c975abb146103735761023a565b80623bdc741461023f5780630f74174f1461025657806322a9008214610281578063368acb09146102aa578063379607f5146102d5575b600080fd5b34801561024b57600080fd5b506102546108c9565b005b34801561026257600080fd5b5061026b6109ce565b60405161027891906139e8565b60405180910390f35b34801561028d57600080fd5b506102a860048036038101906102a39190613a3e565b6109e1565b005b3480156102b657600080fd5b506102bf610a7b565b6040516102cc9190613a7a565b60405180910390f35b3480156102e157600080fd5b506102fc60048036038101906102f79190613a3e565b610a81565b005b34801561030a57600080fd5b50610313610fa4565b005b34801561032157600080fd5b5061032a6110f4565b005b34801561033857600080fd5b50610341611259565b60405161034e9190613ad6565b60405180910390f35b610371600480360381019061036c9190613a3e565b61127f565b005b34801561037f57600080fd5b5061038861164f565b60405161039591906139e8565b60405180910390f35b3480156103aa57600080fd5b506103b3611665565b6040516103c09190613a7a565b60405180910390f35b3480156103d557600080fd5b506103f060048036038101906103eb9190613a3e565b61166b565b005b3480156103fe57600080fd5b5061041960048036038101906104149190613b1d565b611741565b005b34801561042757600080fd5b50610442600480360381019061043d9190613b4a565b611885565b60405161045193929190613c01565b60405180910390f35b34801561046657600080fd5b5061046f6118d6565b60405161047c9190613a7a565b60405180910390f35b34801561049157600080fd5b506104ac60048036038101906104a79190613b1d565b6118dc565b005b3480156104ba57600080fd5b506104c3611a20565b6040516104d09190613a7a565b60405180910390f35b3480156104e557600080fd5b506104ee611a26565b005b3480156104fc57600080fd5b5061051760048036038101906105129190613b4a565b611bcf565b60405161052491906139e8565b60405180910390f35b34801561053957600080fd5b50610542611d80565b005b34801561055057600080fd5b5061056b60048036038101906105669190613a3e565b611ef3565b6040516105839c9b9a99989796959493929190613c51565b60405180910390f35b34801561059857600080fd5b506105a1611f60565b6040516105ae9190613ad6565b60405180910390f35b3480156105c357600080fd5b506105cc611f86565b6040516105d99190613a7a565b60405180910390f35b3480156105ee57600080fd5b5061060960048036038101906106049190613d0b565b611f8c565b604051610617929190613e1c565b60405180910390f35b34801561062c57600080fd5b5061064760048036038101906106429190613a3e565b612147565b005b34801561065557600080fd5b50610670600480360381019061066b9190613b4a565b61227f565b60405161067d91906139e8565b60405180910390f35b6106a0600480360381019061069b9190613a3e565b6124a3565b005b3480156106ae57600080fd5b506106c960048036038101906106c49190613a3e565b612870565b005b3480156106d757600080fd5b506106e061294f565b6040516106ed9190613a7a565b60405180910390f35b34801561070257600080fd5b5061071d60048036038101906107189190613b1d565b612954565b005b34801561072b57600080fd5b5061074660048036038101906107419190613a3e565b612a98565b005b34801561075457600080fd5b5061075d612b32565b60405161076a9190613a7a565b60405180910390f35b34801561077f57600080fd5b50610788612b38565b005b34801561079657600080fd5b506107b160048036038101906107ac9190613e4c565b612d74565b6040516107be9190613a7a565b60405180910390f35b3480156107d357600080fd5b506107dc612da5565b6040516107e99190613a7a565b60405180910390f35b3480156107fe57600080fd5b50610807612dab565b6040516108149190613a7a565b60405180910390f35b34801561082957600080fd5b50610832612db1565b60405161083f91906139e8565b60405180910390f35b34801561085457600080fd5b5061085d612dc4565b60405161086a9190613ad6565b60405180910390f35b34801561087f57600080fd5b50610888612dea565b6040516108959190613a7a565b60405180910390f35b3480156108aa57600080fd5b506108b3612df0565b6040516108c09190613ad6565b60405180910390f35b600860009054906101000a900473ffffffffffffffffffffffffffffffffffffffff1673ffffffffffffffffffffffffffffffffffffffff163373ffffffffffffffffffffffffffffffffffffffff1614610959576040517f08c379a000000000000000000000000000000000000000000000000000000000815260040161095090613ee9565b60405180910390fd5b6000600a5490506000600a81905550610994600860009054906101000a900473ffffffffffffffffffffffffffffffffffffffff1682612e16565b7f609175abb7f12481e4f200d1ef4fc834e6caac3d9eadba42d664352f6d0932ca816040516109c39190613a7a565b60405180910390a150565b601160019054906101000a900460ff1681565b600860009054906101000a900473ffffffffffffffffffffffffffffffffffffffff1673ffffffffffffffffffffffffffffffffffffffff163373ffffffffffffffffffffffffffffffffffffffff1614610a71576040517f08c379a0000000000000000000000000000000000000000000000000000000008152600401610a6890613ee9565b60405180910390fd5b8060058190555050565b600a5481565b610a8a33612ecb565b15610aca576040517f08c379a0000000000000000000000000000000000000000000000000000000008152600401610ac190613f55565b60405180910390fd5b3273ffffffffffffffffffffffffffffffffffffffff163373ffffffffffffffffffffffffffffffffffffffff1614610b38576040517f08c379a0000000000000000000000000000000000000000000000000000000008152600401610b2f90613fc1565b60405180910390fd5b600060016000838152602001908152602001600020600101541415610b92576040517f08c379a0000000000000000000000000000000000000000000000000000000008152600401610b899061402d565b60405180910390fd5b60016000828152602001908152602001600020600301544211610bea576040517f08c379a0000000000000000000000000000000000000000000000000000000008152600401610be190614099565b60405180910390fd5b6002600082815260200190815260200160002060003373ffffffffffffffffffffffffffffffffffffffff1673ffffffffffffffffffffffffffffffffffffffff16815260200190815260200160002060020160009054906101000a900460ff1615610c8b576040517f08c379a0000000000000000000000000000000000000000000000000000000008152600401610c8290614105565b60405180910390fd5b600060016000838152602001908152602001600020600b0160009054906101000a900460ff1615610e3557610cc0823361227f565b610cff576040517f08c379a0000000000000000000000000000000000000000000000000000000008152600401610cf690614171565b60405180910390fd5b6000600160008481526020019081526020016000206040518061018001604052908160008201548152602001600182015481526020016002820154815260200160038201548152602001600482015481526020016005820154815260200160068201548152602001600782015481526020016008820154815260200160098201548152602001600a8201548152602001600b820160009054906101000a900460ff1615151515815250509050610e2d816101200151610e1f8361014001516002600088815260200190815260200160002060003373ffffffffffffffffffffffffffffffffffffffff1673ffffffffffffffffffffffffffffffffffffffff16815260200190815260200160002060010154612ede90919063ffffffff16565b612ef490919063ffffffff16565b915050610ed5565b610e3f8233611bcf565b610e7e576040517f08c379a0000000000000000000000000000000000000000000000000000000008152600401610e75906141dd565b60405180910390fd5b6002600083815260200190815260200160002060003373ffffffffffffffffffffffffffffffffffffffff1673ffffffffffffffffffffffffffffffffffffffff1681526020019081526020016000206001015490505b60006002600084815260200190815260200160002060003373ffffffffffffffffffffffffffffffffffffffff1673ffffffffffffffffffffffffffffffffffffffff168152602001908152602001600020905060018160020160006101000a81548160ff021916908315150217905550610f503383612e16565b823373ffffffffffffffffffffffffffffffffffffffff167f34fcbac0073d7c3d388e51312faf357774904998eeb8fca628b9e6f65ee1cbf784604051610f979190613a7a565b60405180910390a3505050565b600860009054906101000a900473ffffffffffffffffffffffffffffffffffffffff1673ffffffffffffffffffffffffffffffffffffffff163373ffffffffffffffffffffffffffffffffffffffff1614611034576040517f08c379a000000000000000000000000000000000000000000000000000000000815260040161102b90613ee9565b60405180910390fd5b61103c61164f565b61107b576040517f08c379a000000000000000000000000000000000000000000000000000000000815260040161107290614249565b60405180910390fd5b6000601160006101000a81548160ff0219169083151502179055506000601160016101000a81548160ff0219169083151502179055506110b9612f0a565b7faaa520fdd7d2c83061d632fa017b0432407e798818af63ea908589fceda39ab76004546040516110ea9190613a7a565b60405180910390a1565b600960009054906101000a900473ffffffffffffffffffffffffffffffffffffffff1673ffffffffffffffffffffffffffffffffffffffff163373ffffffffffffffffffffffffffffffffffffffff1614611184576040517f08c379a000000000000000000000000000000000000000000000000000000000815260040161117b906142b5565b60405180910390fd5b61118c61164f565b156111cc576040517f08c379a00000000000000000000000000000000000000000000000000000000081526004016111c390614321565b60405180910390fd5b601160009054906101000a900460ff161561121c576040517f08c379a00000000000000000000000000000000000000000000000000000000081526004016112139061438d565b60405180910390fd5b600160045461122b91906143dc565b60048190555061123c600454612fab565b6001601160006101000a81548160ff021916908315150217905550565b600960009054906101000a900473ffffffffffffffffffffffffffffffffffffffff1681565b61128761164f565b156112c7576040517f08c379a00000000000000000000000000000000000000000000000000000000081526004016112be90614321565b60405180910390fd5b6112d033612ecb565b15611310576040517f08c379a000000000000000000000000000000000000000000000000000000000815260040161130790613f55565b60405180910390fd5b3273ffffffffffffffffffffffffffffffffffffffff163373ffffffffffffffffffffffffffffffffffffffff161461137e576040517f08c379a000000000000000000000000000000000000000000000000000000000815260040161137590613fc1565b60405180910390fd5b611389600454613060565b6113c8576040517f08c379a00000000000000000000000000000000000000000000000000000000081526004016113bf9061447e565b60405180910390fd5b600060026000600454815260200190815260200160002060003373ffffffffffffffffffffffffffffffffffffffff1673ffffffffffffffffffffffffffffffffffffffff1681526020019081526020016000206001015414611460576040517f08c379a0000000000000000000000000000000000000000000000000000000008152600401611457906144ea565b60405180910390fd5b600f543410156114a5576040517f08c379a000000000000000000000000000000000000000000000000000000000815260040161149c9061457c565b60405180910390fd5b6000819050349050600060016000600454815260200190815260200160002090506114dd8282600601546130c890919063ffffffff16565b81600601819055506114fc8282600701546130c890919063ffffffff16565b8160070181905550600060026000600454815260200190815260200160002060003373ffffffffffffffffffffffffffffffffffffffff1673ffffffffffffffffffffffffffffffffffffffff168152602001908152602001600020905060008160000160006101000a81548160ff0219169083600181111561158257611581613b8a565b5b0217905550828160010181905550600360003373ffffffffffffffffffffffffffffffffffffffff1673ffffffffffffffffffffffffffffffffffffffff16815260200190815260200160002060045490806001815401808255809150506001900390600052602060002001600090919091909150556004543373ffffffffffffffffffffffffffffffffffffffff167f438122d8cff518d18388099a5181f0d17a12b4f1b55faedf6e4a6acee0060c12856040516116419190613a7a565b60405180910390a350505050565b60008060009054906101000a900460ff16905090565b60105481565b600860009054906101000a900473ffffffffffffffffffffffffffffffffffffffff1673ffffffffffffffffffffffffffffffffffffffff163373ffffffffffffffffffffffffffffffffffffffff16146116fb576040517f08c379a00000000000000000000000000000000000000000000000000000000081526004016116f290613ee9565b60405180910390fd5b80600f819055506004547f82480e97991520549ac4b5d0e1d97edb3bfac2666202923b6903d2a953dc7608600f546040516117369190613a7a565b60405180910390a250565b600760009054906101000a900473ffffffffffffffffffffffffffffffffffffffff1673ffffffffffffffffffffffffffffffffffffffff163373ffffffffffffffffffffffffffffffffffffffff16146117d1576040517f08c379a00000000000000000000000000000000000000000000000000000000081526004016117c8906145e8565b60405180910390fd5b600073ffffffffffffffffffffffffffffffffffffffff168173ffffffffffffffffffffffffffffffffffffffff161415611841576040517f08c379a000000000000000000000000000000000000000000000000000000000815260040161183890614654565b60405180910390fd5b80600860006101000a81548173ffffffffffffffffffffffffffffffffffffffff021916908373ffffffffffffffffffffffffffffffffffffffff16021790555050565b6002602052816000526040600020602052806000526040600020600091509150508060000160009054906101000a900460ff16908060010154908060020160009054906101000a900460ff16905083565b60045481565b600860009054906101000a900473ffffffffffffffffffffffffffffffffffffffff1673ffffffffffffffffffffffffffffffffffffffff163373ffffffffffffffffffffffffffffffffffffffff161461196c576040517f08c379a000000000000000000000000000000000000000000000000000000000815260040161196390613ee9565b60405180910390fd5b600073ffffffffffffffffffffffffffffffffffffffff168173ffffffffffffffffffffffffffffffffffffffff1614156119dc576040517f08c379a00000000000000000000000000000000000000000000000000000000081526004016119d390614654565b60405180910390fd5b80600b60006101000a81548173ffffffffffffffffffffffffffffffffffffffff021916908373ffffffffffffffffffffffffffffffffffffffff16021790555050565b600d5481565b600960009054906101000a900473ffffffffffffffffffffffffffffffffffffffff1673ffffffffffffffffffffffffffffffffffffffff163373ffffffffffffffffffffffffffffffffffffffff1614611ab6576040517f08c379a0000000000000000000000000000000000000000000000000000000008152600401611aad906142b5565b60405180910390fd5b611abe61164f565b15611afe576040517f08c379a0000000000000000000000000000000000000000000000000000000008152600401611af590614321565b60405180910390fd5b601160009054906101000a900460ff168015611b265750601160019054906101000a900460ff165b611b65576040517f08c379a0000000000000000000000000000000000000000000000000000000008152600401611b5c906146e6565b60405180910390fd5b6000611b6f6130de565b9050611b7d60045482613247565b611b956001600454611b8f9190614706565b82613375565b611bac6001600454611ba79190614706565b6134a3565b6001600454611bbb91906143dc565b600481905550611bcc600454613704565b50565b6000806002600085815260200190815260200160002060008473ffffffffffffffffffffffffffffffffffffffff1673ffffffffffffffffffffffffffffffffffffffff1681526020019081526020016000206040518060600160405290816000820160009054906101000a900460ff166001811115611c5257611c51613b8a565b5b6001811115611c6457611c63613b8a565b5b8152602001600182015481526020016002820160009054906101000a900460ff16151515158152505090506000600160008681526020019081526020016000206040518061018001604052908160008201548152602001600182015481526020016002820154815260200160038201548152602001600482015481526020016005820154815260200160068201548152602001600782015481526020016008820154815260200160098201548152602001600a8201548152602001600b820160009054906101000a900460ff1615151515815250509050806101600151158015611d655750611d6260065482606001516130c890919063ffffffff16565b42115b8015611d7657506000826020015114155b9250505092915050565b600860009054906101000a900473ffffffffffffffffffffffffffffffffffffffff1673ffffffffffffffffffffffffffffffffffffffff163373ffffffffffffffffffffffffffffffffffffffff161480611e295750600960009054906101000a900473ffffffffffffffffffffffffffffffffffffffff1673ffffffffffffffffffffffffffffffffffffffff163373ffffffffffffffffffffffffffffffffffffffff16145b611e68576040517f08c379a0000000000000000000000000000000000000000000000000000000008152600401611e5f90614786565b60405180910390fd5b611e7061164f565b15611eb0576040517f08c379a0000000000000000000000000000000000000000000000000000000008152600401611ea790614321565b60405180910390fd5b611eb861382a565b7f68b095021b1f40fe513109f513c66692f0b3219aee674a69f4efc57badb8201d600454604051611ee99190613a7a565b60405180910390a1565b600160205280600052604060002060009150905080600001549080600101549080600201549080600301549080600401549080600501549080600601549080600701549080600801549080600901549080600a01549080600b0160009054906101000a900460ff1690508c565b600760009054906101000a900473ffffffffffffffffffffffffffffffffffffffff1681565b60055481565b606060008083905084600360008873ffffffffffffffffffffffffffffffffffffffff1673ffffffffffffffffffffffffffffffffffffffff16815260200190815260200160002080549050611fe29190614706565b81111561203a5784600360008873ffffffffffffffffffffffffffffffffffffffff1673ffffffffffffffffffffffffffffffffffffffff168152602001908152602001600020805490506120379190614706565b90505b60008167ffffffffffffffff811115612056576120556147a6565b5b6040519080825280602002602001820160405280156120845781602001602082028036833780820191505090505b50905060005b8281101561212b57600360008973ffffffffffffffffffffffffffffffffffffffff1673ffffffffffffffffffffffffffffffffffffffff16815260200190815260200160002081886120dd91906143dc565b815481106120ee576120ed6147d5565b5b906000526020600020015482828151811061210c5761210b6147d5565b5b602002602001018181525050808061212390614804565b91505061208a565b5080828761213991906143dc565b935093505050935093915050565b600860009054906101000a900473ffffffffffffffffffffffffffffffffffffffff1673ffffffffffffffffffffffffffffffffffffffff163373ffffffffffffffffffffffffffffffffffffffff16146121d7576040517f08c379a00000000000000000000000000000000000000000000000000000000081526004016121ce90613ee9565b60405180910390fd5b606481111561221b576040517f08c379a0000000000000000000000000000000000000000000000000000000008152600401612212906148bf565b60405180910390fd5b80600d819055506122368160646138cc90919063ffffffff16565b600e819055506004547f023010bc68e7f4c0be9887f513c570c7a0f5f511b9716abccd42bf3b8943532b600d54600e546040516122749291906148df565b60405180910390a250565b6000806002600085815260200190815260200160002060008473ffffffffffffffffffffffffffffffffffffffff1673ffffffffffffffffffffffffffffffffffffffff1681526020019081526020016000206040518060600160405290816000820160009054906101000a900460ff16600181111561230257612301613b8a565b5b600181111561231457612313613b8a565b5b8152602001600182015481526020016002820160009054906101000a900460ff16151515158152505090506000600160008681526020019081526020016000206040518061018001604052908160008201548152602001600182015481526020016002820154815260200160038201548152602001600482015481526020016005820154815260200160068201548152602001600782015481526020016008820154815260200160098201548152602001600a8201548152602001600b820160009054906101000a900460ff16151515158152505090508060a00151816080015114156124065760009250505061249d565b8061016001518015612498575080608001518160a0015113801561245257506000600181111561243957612438613b8a565b5b826000015160018111156124505761244f613b8a565b5b145b80612497575080608001518160a00151128015612496575060018081111561247d5761247c613b8a565b5b8260000151600181111561249457612493613b8a565b5b145b5b5b925050505b92915050565b6124ab61164f565b156124eb576040517f08c379a00000000000000000000000000000000000000000000000000000000081526004016124e290614321565b60405180910390fd5b6124f433612ecb565b15612534576040517f08c379a000000000000000000000000000000000000000000000000000000000815260040161252b90613f55565b60405180910390fd5b3273ffffffffffffffffffffffffffffffffffffffff163373ffffffffffffffffffffffffffffffffffffffff16146125a2576040517f08c379a000000000000000000000000000000000000000000000000000000000815260040161259990613fc1565b60405180910390fd5b6125ad600454613060565b6125ec576040517f08c379a00000000000000000000000000000000000000000000000000000000081526004016125e39061447e565b60405180910390fd5b600060026000600454815260200190815260200160002060003373ffffffffffffffffffffffffffffffffffffffff1673ffffffffffffffffffffffffffffffffffffffff1681526020019081526020016000206001015414612684576040517f08c379a000000000000000000000000000000000000000000000000000000000815260040161267b906144ea565b60405180910390fd5b600f543410156126c9576040517f08c379a00000000000000000000000000000000000000000000000000000000081526004016126c09061457c565b60405180910390fd5b6000349050600060016000600454815260200190815260200160002090506126fe8282600601546130c890919063ffffffff16565b816006018190555061271d8282600801546130c890919063ffffffff16565b8160080181905550600060026000600454815260200190815260200160002060003373ffffffffffffffffffffffffffffffffffffffff1673ffffffffffffffffffffffffffffffffffffffff168152602001908152602001600020905060018160000160006101000a81548160ff021916908360018111156127a3576127a2613b8a565b5b0217905550828160010181905550600360003373ffffffffffffffffffffffffffffffffffffffff1673ffffffffffffffffffffffffffffffffffffffff16815260200190815260200160002060045490806001815401808255809150506001900390600052602060002001600090919091909150556004543373ffffffffffffffffffffffffffffffffffffffff167f0d8c1fe3e67ab767116a81f122b83c2557a8c2564019cb7c4f83de1aeb1f1f0d856040516128629190613a7a565b60405180910390a350505050565b600860009054906101000a900473ffffffffffffffffffffffffffffffffffffffff1673ffffffffffffffffffffffffffffffffffffffff163373ffffffffffffffffffffffffffffffffffffffff1614612900576040517f08c379a00000000000000000000000000000000000000000000000000000000081526004016128f790613ee9565b60405180910390fd5b600554811115612945576040517f08c379a000000000000000000000000000000000000000000000000000000000815260040161293c90614954565b60405180910390fd5b8060068190555050565b606481565b600860009054906101000a900473ffffffffffffffffffffffffffffffffffffffff1673ffffffffffffffffffffffffffffffffffffffff163373ffffffffffffffffffffffffffffffffffffffff16146129e4576040517f08c379a00000000000000000000000000000000000000000000000000000000081526004016129db90613ee9565b60405180910390fd5b600073ffffffffffffffffffffffffffffffffffffffff168173ffffffffffffffffffffffffffffffffffffffff161415612a54576040517f08c379a0000000000000000000000000000000000000000000000000000000008152600401612a4b90614654565b60405180910390fd5b80600960006101000a81548173ffffffffffffffffffffffffffffffffffffffff021916908373ffffffffffffffffffffffffffffffffffffffff16021790555050565b600860009054906101000a900473ffffffffffffffffffffffffffffffffffffffff1673ffffffffffffffffffffffffffffffffffffffff163373ffffffffffffffffffffffffffffffffffffffff1614612b28576040517f08c379a0000000000000000000000000000000000000000000000000000000008152600401612b1f90613ee9565b60405180910390fd5b8060108190555050565b600c5481565b600960009054906101000a900473ffffffffffffffffffffffffffffffffffffffff1673ffffffffffffffffffffffffffffffffffffffff163373ffffffffffffffffffffffffffffffffffffffff1614612bc8576040517f08c379a0000000000000000000000000000000000000000000000000000000008152600401612bbf906142b5565b60405180910390fd5b612bd061164f565b15612c10576040517f08c379a0000000000000000000000000000000000000000000000000000000008152600401612c0790614321565b60405180910390fd5b601160009054906101000a900460ff16612c5f576040517f08c379a0000000000000000000000000000000000000000000000000000000008152600401612c56906149e6565b60405180910390fd5b601160019054906101000a900460ff1615612caf576040517f08c379a0000000000000000000000000000000000000000000000000000000008152600401612ca69061438d565b60405180910390fd5b612cdc600654600160006004548152602001908152602001600020600201546130c890919063ffffffff16565b421115612d1e576040517f08c379a0000000000000000000000000000000000000000000000000000000008152600401612d1590614a78565b60405180910390fd5b6000612d286130de565b9050612d3660045482613247565b6001600454612d4591906143dc565b600481905550612d56600454612fab565b6001601160016101000a81548160ff02191690831515021790555050565b60036020528160005260406000208181548110612d9057600080fd5b90600052602060002001600091509150505481565b600e5481565b60065481565b601160009054906101000a900460ff1681565b600860009054906101000a900473ffffffffffffffffffffffffffffffffffffffff1681565b600f5481565b601160029054906101000a900473ffffffffffffffffffffffffffffffffffffffff1681565b60008273ffffffffffffffffffffffffffffffffffffffff166159d883604051612e3f90614ac9565b600060405180830381858888f193505050503d8060008114612e7d576040519150601f19603f3d011682016040523d82523d6000602084013e612e82565b606091505b5050905080612ec6576040517f08c379a0000000000000000000000000000000000000000000000000000000008152600401612ebd90614b2a565b60405180910390fd5b505050565b600080823b905060008111915050919050565b60008183612eec9190614b4a565b905092915050565b60008183612f029190614bd3565b905092915050565b612f1261164f565b612f51576040517f08c379a0000000000000000000000000000000000000000000000000000000008152600401612f4890614249565b60405180910390fd5b60008060006101000a81548160ff0219169083151502179055507f5db9ee0a495bf2e6ff9c91a7834c1ba4fdd244a5e8aa4e537bd38aeae4b073aa612f946138e2565b604051612fa19190613ad6565b60405180910390a1565b6000600160008381526020019081526020016000209050428160010181905550612fe0600554426130c890919063ffffffff16565b81600201819055506130096002600554612ffa9190614b4a565b426130c890919063ffffffff16565b816003018190555081816000018190555060008160060181905550817f0e5543feb86a4cd302f2b88b26c42be2d1673013a34e1f98bd6d524dd3b4ab41426040516130549190613a7a565b60405180910390a25050565b60008060016000848152602001908152602001600020600101549050600060016000858152602001908152602001600020600201549050600082141580156130a9575060008114155b80156130b457508142115b80156130bf57508042105b92505050919050565b600081836130d691906143dc565b905092915050565b6000806130f6601054426130c890919063ffffffff16565b90506000806000600b60009054906101000a900473ffffffffffffffffffffffffffffffffffffffff1673ffffffffffffffffffffffffffffffffffffffff1663feaf968c6040518163ffffffff1660e01b815260040160a060405180830381865afa15801561316a573d6000803e3d6000fd5b505050506040513d601f19601f8201168201806040525081019061318e9190614c87565b5093505092509250838111156131d9576040517f08c379a00000000000000000000000000000000000000000000000000000000081526004016131d090614d74565b60405180910390fd5b600c548369ffffffffffffffffffff16101561322a576040517f08c379a000000000000000000000000000000000000000000000000000000000815260040161322190614de0565b60405180910390fd5b8269ffffffffffffffffffff16600c819055508194505050505090565b6000600160008481526020019081526020016000206001015414156132a1576040517f08c379a000000000000000000000000000000000000000000000000000000000815260040161329890614e4c565b60405180910390fd5b60016000838152602001908152602001600020600201544210156132fa576040517f08c379a00000000000000000000000000000000000000000000000000000000081526004016132f190614eb8565b60405180910390fd5b61332560065460016000858152602001908152602001600020600201546130c890919063ffffffff16565b421115613367576040517f08c379a000000000000000000000000000000000000000000000000000000000815260040161335e90614a78565b60405180910390fd5b61337182826138ea565b5050565b6000600160008481526020019081526020016000206002015414156133cf576040517f08c379a00000000000000000000000000000000000000000000000000000000081526004016133c690614f24565b60405180910390fd5b6001600083815260200190815260200160002060030154421015613428576040517f08c379a000000000000000000000000000000000000000000000000000000000815260040161341f90614f90565b60405180910390fd5b61345360065460016000858152602001908152602001600020600301546130c890919063ffffffff16565b421115613495576040517f08c379a000000000000000000000000000000000000000000000000000000000815260040161348c90614ffc565b60405180910390fd5b61349f828261394d565b5050565b60646134bc600e54600d546130c890919063ffffffff16565b146134fc576040517f08c379a00000000000000000000000000000000000000000000000000000000081526004016134f390615068565b60405180910390fd5b600060016000838152602001908152602001600020600901541480156135385750600060016000838152602001908152602001600020600a0154145b613577576040517f08c379a000000000000000000000000000000000000000000000000000000000815260040161356e906150d4565b60405180910390fd5b6000600160008381526020019081526020016000209050600080600083600401548460050154131561360b57836007015492506135d660646135c8600d548760060154612ede90919063ffffffff16565b612ef490919063ffffffff16565b915061360460646135f6600e548760060154612ede90919063ffffffff16565b612ef490919063ffffffff16565b9050613694565b836004015484600501541215613683578360080154925061364e6064613640600d548760060154612ede90919063ffffffff16565b612ef490919063ffffffff16565b915061367c606461366e600e548760060154612ede90919063ffffffff16565b612ef490919063ffffffff16565b9050613693565b6000925060009150836006015490505b5b8284600901819055508184600a01819055506136bb81600a546130c890919063ffffffff16565b600a81905550847f6dfdfcb09c8804d0058826cd2539f1acfbe3cb887c9be03d928035bce0f1a58d8484846040516136f5939291906150f4565b60405180910390a25050505050565b601160009054906101000a900460ff16613753576040517f08c379a000000000000000000000000000000000000000000000000000000000815260040161374a90615177565b60405180910390fd5b6000600160006002846137669190614706565b81526020019081526020016000206003015414156137b9576040517f08c379a00000000000000000000000000000000000000000000000000000000081526004016137b0906151e3565b60405180910390fd5b600160006002836137ca9190614706565b81526020019081526020016000206003015442101561381e576040517f08c379a00000000000000000000000000000000000000000000000000000000081526004016138159061524f565b60405180910390fd5b61382781612fab565b50565b61383261164f565b15613872576040517f08c379a000000000000000000000000000000000000000000000000000000000815260040161386990614321565b60405180910390fd5b60016000806101000a81548160ff0219169083151502179055507f62e78cea01bee320cd4e420270b5ea74000d11b0c9f74754ebdbfc544b05a2586138b56138e2565b6040516138c29190613ad6565b60405180910390a1565b600081836138da9190614706565b905092915050565b600033905090565b6000600160008481526020019081526020016000209050818160040181905550827f482e76a65b448a42deef26e99e58fb20c85e26f075defff8df6aa80459b3900642836004015460405161394092919061526f565b60405180910390a2505050565b6000600160008481526020019081526020016000209050818160050181905550600181600b0160006101000a81548160ff021916908315150217905550827fb6ff1fe915db84788cbbbc017f0d2bef9485fad9fd0bd8ce9340fde0d8410dd84283600501546040516139c092919061526f565b60405180910390a2505050565b60008115159050919050565b6139e2816139cd565b82525050565b60006020820190506139fd60008301846139d9565b92915050565b600080fd5b6000819050919050565b613a1b81613a08565b8114613a2657600080fd5b50565b600081359050613a3881613a12565b92915050565b600060208284031215613a5457613a53613a03565b5b6000613a6284828501613a29565b91505092915050565b613a7481613a08565b82525050565b6000602082019050613a8f6000830184613a6b565b92915050565b600073ffffffffffffffffffffffffffffffffffffffff82169050919050565b6000613ac082613a95565b9050919050565b613ad081613ab5565b82525050565b6000602082019050613aeb6000830184613ac7565b92915050565b613afa81613ab5565b8114613b0557600080fd5b50565b600081359050613b1781613af1565b92915050565b600060208284031215613b3357613b32613a03565b5b6000613b4184828501613b08565b91505092915050565b60008060408385031215613b6157613b60613a03565b5b6000613b6f85828601613a29565b9250506020613b8085828601613b08565b9150509250929050565b7f4e487b7100000000000000000000000000000000000000000000000000000000600052602160045260246000fd5b60028110613bca57613bc9613b8a565b5b50565b6000819050613bdb82613bb9565b919050565b6000613beb82613bcd565b9050919050565b613bfb81613be0565b82525050565b6000606082019050613c166000830186613bf2565b613c236020830185613a6b565b613c3060408301846139d9565b949350505050565b6000819050919050565b613c4b81613c38565b82525050565b600061018082019050613c67600083018f613a6b565b613c74602083018e613a6b565b613c81604083018d613a6b565b613c8e606083018c613a6b565b613c9b608083018b613c42565b613ca860a083018a613c42565b613cb560c0830189613a6b565b613cc260e0830188613a6b565b613cd0610100830187613a6b565b613cde610120830186613a6b565b613cec610140830185613a6b565b613cfa6101608301846139d9565b9d9c50505050505050505050505050565b600080600060608486031215613d2457613d23613a03565b5b6000613d3286828701613b08565b9350506020613d4386828701613a29565b9250506040613d5486828701613a29565b9150509250925092565b600081519050919050565b600082825260208201905092915050565b6000819050602082019050919050565b613d9381613a08565b82525050565b6000613da58383613d8a565b60208301905092915050565b6000602082019050919050565b6000613dc982613d5e565b613dd38185613d69565b9350613dde83613d7a565b8060005b83811015613e0f578151613df68882613d99565b9750613e0183613db1565b925050600181019050613de2565b5085935050505092915050565b60006040820190508181036000830152613e368185613dbe565b9050613e456020830184613a6b565b9392505050565b60008060408385031215613e6357613e62613a03565b5b6000613e7185828601613b08565b9250506020613e8285828601613a29565b9150509250929050565b600082825260208201905092915050565b7f61646d696e3a207775743f000000000000000000000000000000000000000000600082015250565b6000613ed3600b83613e8c565b9150613ede82613e9d565b602082019050919050565b60006020820190508181036000830152613f0281613ec6565b9050919050565b7f636f6e7472616374206e6f7420616c6c6f776564000000000000000000000000600082015250565b6000613f3f601483613e8c565b9150613f4a82613f09565b602082019050919050565b60006020820190508181036000830152613f6e81613f32565b9050919050565b7f70726f787920636f6e7472616374206e6f7420616c6c6f776564000000000000600082015250565b6000613fab601a83613e8c565b9150613fb682613f75565b602082019050919050565b60006020820190508181036000830152613fda81613f9e565b9050919050565b7f526f756e6420686173206e6f7420737461727465640000000000000000000000600082015250565b6000614017601583613e8c565b915061402282613fe1565b602082019050919050565b600060208201905081810360008301526140468161400a565b9050919050565b7f526f756e6420686173206e6f7420656e64656400000000000000000000000000600082015250565b6000614083601383613e8c565b915061408e8261404d565b602082019050919050565b600060208201905081810360008301526140b281614076565b9050919050565b7f5265776172647320636c61696d65640000000000000000000000000000000000600082015250565b60006140ef600f83613e8c565b91506140fa826140b9565b602082019050919050565b6000602082019050818103600083015261411e816140e2565b9050919050565b7f4e6f7420656c696769626c6520666f7220636c61696d00000000000000000000600082015250565b600061415b601683613e8c565b915061416682614125565b602082019050919050565b6000602082019050818103600083015261418a8161414e565b9050919050565b7f4e6f7420656c696769626c6520666f7220726566756e64000000000000000000600082015250565b60006141c7601783613e8c565b91506141d282614191565b602082019050919050565b600060208201905081810360008301526141f6816141ba565b9050919050565b7f5061757361626c653a206e6f7420706175736564000000000000000000000000600082015250565b6000614233601483613e8c565b915061423e826141fd565b602082019050919050565b6000602082019050818103600083015261426281614226565b9050919050565b7f6f70657261746f723a207775743f000000000000000000000000000000000000600082015250565b600061429f600e83613e8c565b91506142aa82614269565b602082019050919050565b600060208201905081810360008301526142ce81614292565b9050919050565b7f5061757361626c653a2070617573656400000000000000000000000000000000600082015250565b600061430b601083613e8c565b9150614316826142d5565b602082019050919050565b6000602082019050818103600083015261433a816142fe565b9050919050565b7f43616e206f6e6c792072756e206f6e6365000000000000000000000000000000600082015250565b6000614377601183613e8c565b915061438282614341565b602082019050919050565b600060208201905081810360008301526143a68161436a565b9050919050565b7f4e487b7100000000000000000000000000000000000000000000000000000000600052601160045260246000fd5b60006143e782613a08565b91506143f283613a08565b9250827fffffffffffffffffffffffffffffffffffffffffffffffffffffffffffffffff03821115614427576144266143ad565b5b828201905092915050565b7f526f756e64206e6f74206265747461626c650000000000000000000000000000600082015250565b6000614468601283613e8c565b915061447382614432565b602082019050919050565b600060208201905081810360008301526144978161445b565b9050919050565b7f43616e206f6e6c7920626574206f6e63652070657220726f756e640000000000600082015250565b60006144d4601b83613e8c565b91506144df8261449e565b602082019050919050565b60006020820190508181036000830152614503816144c7565b9050919050565b7f42657420616d6f756e74206d7573742062652067726561746572207468616e2060008201527f6d696e426574416d6f756e740000000000000000000000000000000000000000602082015250565b6000614566602c83613e8c565b91506145718261450a565b604082019050919050565b6000602082019050818103600083015261459581614559565b9050919050565b7f6f776e65723a207775743f000000000000000000000000000000000000000000600082015250565b60006145d2600b83613e8c565b91506145dd8261459c565b602082019050919050565b60006020820190508181036000830152614601816145c5565b9050919050565b7f43616e6e6f74206265207a65726f206164647265737300000000000000000000600082015250565b600061463e601683613e8c565b915061464982614608565b602082019050919050565b6000602082019050818103600083015261466d81614631565b9050919050565b7f43616e206f6e6c792072756e2061667465722067656e6573697320726f756e6460008201527f7300000000000000000000000000000000000000000000000000000000000000602082015250565b60006146d0602183613e8c565b91506146db82614674565b604082019050919050565b600060208201905081810360008301526146ff816146c3565b9050919050565b600061471182613a08565b915061471c83613a08565b92508282101561472f5761472e6143ad565b5b828203905092915050565b7f61646d696e207c206f70657261746f723a207775743f00000000000000000000600082015250565b6000614770601683613e8c565b915061477b8261473a565b602082019050919050565b6000602082019050818103600083015261479f81614763565b9050919050565b7f4e487b7100000000000000000000000000000000000000000000000000000000600052604160045260246000fd5b7f4e487b7100000000000000000000000000000000000000000000000000000000600052603260045260246000fd5b600061480f82613a08565b91507fffffffffffffffffffffffffffffffffffffffffffffffffffffffffffffffff821415614842576148416143ad565b5b600182019050919050565b7f726577617264526174652063616e6e6f74206265206d6f7265207468616e203160008201527f3030250000000000000000000000000000000000000000000000000000000000602082015250565b60006148a9602383613e8c565b91506148b48261484d565b604082019050919050565b600060208201905081810360008301526148d88161489c565b9050919050565b60006040820190506148f46000830185613a6b565b6149016020830184613a6b565b9392505050565b7f43616e6e6f74206265206d6f7265207468616e20696e74657276616c00000000600082015250565b600061493e601c83613e8c565b915061494982614908565b602082019050919050565b6000602082019050818103600083015261496d81614931565b9050919050565b7f43616e206f6e6c792072756e2061667465722067656e6573697353746172745260008201527f6f756e6420697320747269676765726564000000000000000000000000000000602082015250565b60006149d0603183613e8c565b91506149db82614974565b604082019050919050565b600060208201905081810360008301526149ff816149c3565b9050919050565b7f43616e206f6e6c79206c6f636b20726f756e642077697468696e20627566666560008201527f7200000000000000000000000000000000000000000000000000000000000000602082015250565b6000614a62602183613e8c565b9150614a6d82614a06565b604082019050919050565b60006020820190508181036000830152614a9181614a55565b9050919050565b600081905092915050565b50565b6000614ab3600083614a98565b9150614abe82614aa3565b600082019050919050565b6000614ad482614aa6565b9150819050919050565b7f4661696c75726520696e206e6174697665207472616e73666572000000000000600082015250565b6000614b14601a83613e8c565b9150614b1f82614ade565b602082019050919050565b60006020820190508181036000830152614b4381614b07565b9050919050565b6000614b5582613a08565b9150614b6083613a08565b9250817fffffffffffffffffffffffffffffffffffffffffffffffffffffffffffffffff0483118215151615614b9957614b986143ad565b5b828202905092915050565b7f4e487b7100000000000000000000000000000000000000000000000000000000600052601260045260246000fd5b6000614bde82613a08565b9150614be983613a08565b925082614bf957614bf8614ba4565b5b828204905092915050565b600069ffffffffffffffffffff82169050919050565b614c2381614c04565b8114614c2e57600080fd5b50565b600081519050614c4081614c1a565b92915050565b614c4f81613c38565b8114614c5a57600080fd5b50565b600081519050614c6c81614c46565b92915050565b600081519050614c8181613a12565b92915050565b600080600080600060a08688031215614ca357614ca2613a03565b5b6000614cb188828901614c31565b9550506020614cc288828901614c5d565b9450506040614cd388828901614c72565b9350506060614ce488828901614c72565b9250506080614cf588828901614c31565b9150509295509295909350565b7f4f7261636c6520757064617465206578636565646564206d617820616c6c6f7760008201527f616e636500000000000000000000000000000000000000000000000000000000602082015250565b6000614d5e602483613e8c565b9150614d6982614d02565b604082019050919050565b60006020820190508181036000830152614d8d81614d51565b9050919050565b7f4f7261636c652075706461746520726f756e644964203c206f6c642069640000600082015250565b6000614dca601e83613e8c565b9150614dd582614d94565b602082019050919050565b60006020820190508181036000830152614df981614dbd565b9050919050565b7f526f756e64206e6f742073746172746564000000000000000000000000000000600082015250565b6000614e36601183613e8c565b9150614e4182614e00565b602082019050919050565b60006020820190508181036000830152614e6581614e29565b9050919050565b7f6c6f636b54696d65206e6f742072656163686564000000000000000000000000600082015250565b6000614ea2601483613e8c565b9150614ead82614e6c565b602082019050919050565b60006020820190508181036000830152614ed181614e95565b9050919050565b7f526f756e64206e6f74206c6f636b656400000000000000000000000000000000600082015250565b6000614f0e601083613e8c565b9150614f1982614ed8565b602082019050919050565b60006020820190508181036000830152614f3d81614f01565b9050919050565b7f656e6454696d65206e6f74207265616368656400000000000000000000000000600082015250565b6000614f7a601383613e8c565b9150614f8582614f44565b602082019050919050565b60006020820190508181036000830152614fa981614f6d565b9050919050565b7f43616e206f6e6c7920656e6420726f756e642077697468696e20627566666572600082015250565b6000614fe6602083613e8c565b9150614ff182614fb0565b602082019050919050565b6000602082019050818103600083015261501581614fd9565b9050919050565b7f726577617264526174652b74726561737572795261746520213d203130300000600082015250565b6000615052601e83613e8c565b915061505d8261501c565b602082019050919050565b6000602082019050818103600083015261508181615045565b9050919050565b7f526577617264732063616c63756c617465640000000000000000000000000000600082015250565b60006150be601283613e8c565b91506150c982615088565b602082019050919050565b600060208201905081810360008301526150ed816150b1565b9050919050565b60006060820190506151096000830186613a6b565b6151166020830185613a6b565b6151236040830184613a6b565b949350505050565b7f67656e657369735374617274526f756e64206e6f742074726967676572656400600082015250565b6000615161601f83613e8c565b915061516c8261512b565b602082019050919050565b6000602082019050818103600083015261519081615154565b9050919050565b7f526f756e64206e2d32206e6f7420656e64656400000000000000000000000000600082015250565b60006151cd601383613e8c565b91506151d882615197565b602082019050919050565b600060208201905081810360008301526151fc816151c0565b9050919050565b7f526f756e64206e2d3220656e6454696d65206e6f742072656163686564000000600082015250565b6000615239601d83613e8c565b915061524482615203565b602082019050919050565b600060208201905081810360008301526152688161522c565b9050919050565b60006040820190506152846000830185613a6b565b6152916020830184613c42565b939250505056fea2646970667358221220c70a7023b1e143d183834f193a59354f0316217c84c67cb25d9302747b6d532664736f6c634300080a0033a2646970667358221220ad7cd0f2408eb5947424dd9cd7699d0f73e771aec0694586b50f586f80f6971464736f6c634300080a0033",
  "immutableReferences": {},
  "source": "pragma solidity ^0.8.0;\r\nimport './PredMarket.sol';\r\n\r\ncontract PredMarketFactory{\r\n\r\n    address public owner;\r\n \r\n    //tokens contract => market contract\r\n    mapping(address => address) public markets;\r\n\r\n    event MarketCreated(address indexed tokenPred);\r\n\r\n    constructor(){\r\n        owner = msg.sender;\r\n    }\r\n\r\n    function createTokenPredNativeStaking(\r\n        address _token,\r\n        address _oracle,\r\n        address _admin,\r\n        address _operator,\r\n        uint256 _interval,\r\n        uint256 _buffer,\r\n        uint256 _minBetAmount,\r\n        uint256 _oracleUpdateAllowance\r\n    )\r\n    external\r\n    onlyOwner\r\n    {\r\n        require(markets[_token] == address(0), \"Already deployed\");\r\n        \r\n        PredMarket pred = new PredMarket(\r\n            _token,\r\n            _oracle,\r\n            _admin,\r\n            _operator,\r\n            _interval,\r\n            _buffer,\r\n            _minBetAmount,\r\n            _oracleUpdateAllowance\r\n        );\r\n\r\n        markets[_token] = address(pred);\r\n\r\n        emit MarketCreated(_token);\r\n\r\n    }\r\n\r\n    function changeOwner(address _owner) public onlyOwner{\r\n        owner = _owner;\r\n    }\r\n\r\n    modifier onlyOwner{\r\n        require(owner == msg.sender, \"Only owner function\");\r\n        _;\r\n    }\r\n\r\n\r\n\r\n}",
  "sourcePath": "C:\\Users\\Shivam Agrawal\\Desktop\\New folder (2)\\contracts\\PredMarketFactory.sol",
  "compiler": {
    "name": "solc",
    "version": "0.8.10+commit.fc410830.Emscripten.clang"
  },
  "schemaVersion": "3.4.4",
  "updatedAt": "2022-01-14T16:43:31.767Z",
  "devdoc": {
    "kind": "dev",
    "methods": {},
    "version": 1
  },
  "userdoc": {
    "kind": "user",
    "methods": {},
    "version": 1
  }
}